{
  "transactions": [
    {
      "hash": null,
      "transactionType": "CALL",
      "contractName": null,
      "contractAddress": "0x49ae3cc2e3aa768b1e5654f5d3c6002144a59581",
      "function": "register((string,address,uint256,address,bytes[],bool))",
      "arguments": [
        "(onetx, 0x1804c8AB1F12E6bbf3894d4083f33e07309d1f38, 31536000, 0x6533C94869D28fAA8dF77cc63f9e2b2D6Cf77eBA, [], true)"
      ],
      "transaction": {
        "from": "0x1804c8ab1f12e6bbf3894d4083f33e07309d1f38",
        "to": "0x49ae3cc2e3aa768b1e5654f5d3c6002144a59581",
        "gas": "0x5fe60",
        "value": "0x38caa5763a100",
        "input": "0xc7c79676000000000000000000000000000000000000000000000000000000000000002000000000000000000000000000000000000000000000000000000000000000c00000000000000000000000001804c8ab1f12e6bbf3894d4083f33e07309d1f380000000000000000000000000000000000000000000000000000000001e133800000000000000000000000006533c94869d28faa8df77cc63f9e2b2d6cf77eba0000000000000000000000000000000000000000000000000000000000000100000000000000000000000000000000000000000000000000000000000000000100000000000000000000000000000000000000000000000000000000000000056f6e6574780000000000000000000000000000000000000000000000000000000000000000000000000000000000000000000000000000000000000000000000",
        "nonce": "0x0",
        "chainId": "0x14a34"
      },
      "additionalContracts": [],
      "isFixedGasLimit": false
    }
  ],
  "receipts": [],
  "libraries": [],
  "pending": [],
  "returns": {},
  "timestamp": 1763834776180,
  "chain": 84532,
  "commit": "8012391"
}