{
  "transactions": [
    {
      "hash": "0x9f93cc972c391df81b9a13ceb4aa54909ca67d4c69cf0c4b3678eb0cb48bfd5d",
      "transactionType": "CALL",
      "contractName": null,
      "contractAddress": "0x0a215d8ba66387dca84b284d18c3b4ec3de6e54a",
      "function": "approve(address,uint256)",
      "arguments": [
        "0x000000000022D473030F116dDEE9F6B43aC78BA3",
        "115792089237316195423570985008687907853269984665640564039457584007913129639935"
      ],
      "transaction": {
        "from": "0x8ff8e6ee2a0d3427160fba3240e87797036a2bc0",
        "to": "0x0a215d8ba66387dca84b284d18c3b4ec3de6e54a",
        "gas": "0x9ec1",
        "value": "0x0",
        "input": "0x095ea7b3000000000000000000000000000000000022d473030f116ddee9f6b43ac78ba3ffffffffffffffffffffffffffffffffffffffffffffffffffffffffffffffff",
        "nonce": "0x2a",
        "chainId": "0x14a34"
      },
      "additionalContracts": [],
      "isFixedGasLimit": false
    },
    {
      "hash": "0x444a780e459db2b89a1d5f1cf2dc671aa5a7c249697a563293e728a3032a6e4e",
      "transactionType": "CALL",
      "contractName": null,
      "contractAddress": "0x000000000022d473030f116ddee9f6b43ac78ba3",
      "function": "approve(address,address,uint160,uint48)",
      "arguments": [
        "0x0a215D8ba66387DCA84B284D18c3B4ec3de6E54a",
        "0x4B2C77d209D3405F41a037Ec6c77F7F5b8e2ca80",
        "1461501637330902918203684832716283019655932542975",
        "281474976710655"
      ],
      "transaction": {
        "from": "0x8ff8e6ee2a0d3427160fba3240e87797036a2bc0",
        "to": "0x000000000022d473030f116ddee9f6b43ac78ba3",
        "gas": "0x96a0",
        "value": "0x0",
        "input": "0x87517c450000000000000000000000000a215d8ba66387dca84b284d18c3b4ec3de6e54a0000000000000000000000004b2c77d209d3405f41a037ec6c77f7f5b8e2ca80000000000000000000000000ffffffffffffffffffffffffffffffffffffffff0000000000000000000000000000000000000000000000000000ffffffffffff",
        "nonce": "0x2b",
        "chainId": "0x14a34"
      },
      "additionalContracts": [],
      "isFixedGasLimit": false
    },
    {
      "hash": "0xf76408ab6622ce4e9fb9a949bb24d937f7340d15c0e11edff41fed3074c5cfa6",
      "transactionType": "CALL",
      "contractName": null,
      "contractAddress": "0xba50cd2a20f6da35d788639e581bca8d0b5d4d5f",
      "function": "approve(address,uint256)",
      "arguments": [
        "0x000000000022D473030F116dDEE9F6B43aC78BA3",
        "115792089237316195423570985008687907853269984665640564039457584007913129639935"
      ],
      "transaction": {
        "from": "0x8ff8e6ee2a0d3427160fba3240e87797036a2bc0",
        "to": "0xba50cd2a20f6da35d788639e581bca8d0b5d4d5f",
        "gas": "0x9ec1",
        "value": "0x0",
        "input": "0x095ea7b3000000000000000000000000000000000022d473030f116ddee9f6b43ac78ba3ffffffffffffffffffffffffffffffffffffffffffffffffffffffffffffffff",
        "nonce": "0x2c",
        "chainId": "0x14a34"
      },
      "additionalContracts": [],
      "isFixedGasLimit": false
    },
    {
      "hash": "0x334a87dd20008abdcb6e30e298d487b555079092669ee9a9c4c57ca605f2411e",
      "transactionType": "CALL",
      "contractName": null,
      "contractAddress": "0x000000000022d473030f116ddee9f6b43ac78ba3",
      "function": "approve(address,address,uint160,uint48)",
      "arguments": [
        "0xba50Cd2A20f6DA35D788639E581bca8d0B5d4D5f",
        "0x4B2C77d209D3405F41a037Ec6c77F7F5b8e2ca80",
        "1461501637330902918203684832716283019655932542975",
        "281474976710655"
      ],
      "transaction": {
        "from": "0x8ff8e6ee2a0d3427160fba3240e87797036a2bc0",
        "to": "0x000000000022d473030f116ddee9f6b43ac78ba3",
        "gas": "0x96a0",
        "value": "0x0",
        "input": "0x87517c45000000000000000000000000ba50cd2a20f6da35d788639e581bca8d0b5d4d5f0000000000000000000000004b2c77d209d3405f41a037ec6c77f7f5b8e2ca80000000000000000000000000ffffffffffffffffffffffffffffffffffffffff0000000000000000000000000000000000000000000000000000ffffffffffff",
        "nonce": "0x2d",
        "chainId": "0x14a34"
      },
      "additionalContracts": [],
      "isFixedGasLimit": false
    },
    {
      "hash": "0x8294b3a8c56f4cd22c175ab21d4c51103958dfe91ab780b297b40083a5aba116",
      "transactionType": "CALL",
      "contractName": null,
      "contractAddress": "0x4b2c77d209d3405f41a037ec6c77f7f5b8e2ca80",
      "function": "multicall(bytes[])",
      "arguments": [
        "[0xf70204050000000000000000000000000a215d8ba66387dca84b284d18c3b4ec3de6e54a000000000000000000000000ba50cd2a20f6da35d788639e581bca8d0b5d4d5f0000000000000000000000000000000000000000000000000000000000000bb8000000000000000000000000000000000000000000000000000000000000003c000000000000000000000000d1b0f8f27aad2292765e2ca645e7ef1a692980c4000000000000000000000000000000000000000100000000000000000000000000000000000000000000000000000000000000000000000000000000000000e00000000000000000000000000000000000000000000000000000000000000000, 0xdd46508f0000000000000000000000000000000000000000000000000000000000000040000000000000000000000000000000000000000000000000000000006922504a0000000000000000000000000000000000000000000000000000000000000400000000000000000000000000000000000000000000000000000000000000004000000000000000000000000000000000000000000000000000000000000000800000000000000000000000000000000000000000000000000000000000000004020d14140000000000000000000000000000000000000000000000000000000000000000000000000000000000000000000000000000000000000000000000040000000000000000000000000000000000000000000000000000000000000080000000000000000000000000000000000000000000000000000000000000024000000000000000000000000000000000000000000000000000000000000002a0000000000000000000000000000000000000000000000000000000000000030000000000000000000000000000000000000000000000000000000000000001a00000000000000000000000000a215d8ba66387dca84b284d18c3b4ec3de6e54a000000000000000000000000ba50cd2a20f6da35d788639e581bca8d0b5d4d5f0000000000000000000000000000000000000000000000000000000000000bb8000000000000000000000000000000000000000000000000000000000000003c000000000000000000000000d1b0f8f27aad2292765e2ca645e7ef1a692980c4ffffffffffffffffffffffffffffffffffffffffffffffffffffffffffff15a0000000000000000000000000000000000000000000000000000000000000ea600000000000000000000000000000000000000000000000000000000139a40cfe000000000000000000000000000000000000000000000000000000012d00e280000000000000000000000000000000000000000000000000000000012d00e2800000000000000000000000008ff8e6ee2a0d3427160fba3240e87797036a2bc00000000000000000000000000000000000000000000000000000000000000180000000000000000000000000000000000000000000000000000000000000000000000000000000000000000000000000000000000000000000000000000000400000000000000000000000000a215d8ba66387dca84b284d18c3b4ec3de6e54a000000000000000000000000ba50cd2a20f6da35d788639e581bca8d0b5d4d5f00000000000000000000000000000000000000000000000000000000000000400000000000000000000000000a215d8ba66387dca84b284d18c3b4ec3de6e54a0000000000000000000000008ff8e6ee2a0d3427160fba3240e87797036a2bc00000000000000000000000000000000000000000000000000000000000000040000000000000000000000000ba50cd2a20f6da35d788639e581bca8d0b5d4d5f0000000000000000000000008ff8e6ee2a0d3427160fba3240e87797036a2bc0]"
      ],
      "transaction": {
        "from": "0x8ff8e6ee2a0d3427160fba3240e87797036a2bc0",
        "to": "0x4b2c77d209d3405f41a037ec6c77f7f5b8e2ca80",
        "gas": "0x9694f",
        "value": "0x0",
        "input": "0xac9650d800000000000000000000000000000000000000000000000000000000000000200000000000000000000000000000000000000000000000000000000000000002000000000000000000000000000000000000000000000000000000000000004000000000000000000000000000000000000000000000000000000000000001800000000000000000000000000000000000000000000000000000000000000104f70204050000000000000000000000000a215d8ba66387dca84b284d18c3b4ec3de6e54a000000000000000000000000ba50cd2a20f6da35d788639e581bca8d0b5d4d5f0000000000000000000000000000000000000000000000000000000000000bb8000000000000000000000000000000000000000000000000000000000000003c000000000000000000000000d1b0f8f27aad2292765e2ca645e7ef1a692980c4000000000000000000000000000000000000000100000000000000000000000000000000000000000000000000000000000000000000000000000000000000e00000000000000000000000000000000000000000000000000000000000000000000000000000000000000000000000000000000000000000000000000000000000000000000000000000000000000000000000000000000000000464dd46508f0000000000000000000000000000000000000000000000000000000000000040000000000000000000000000000000000000000000000000000000006922504a0000000000000000000000000000000000000000000000000000000000000400000000000000000000000000000000000000000000000000000000000000004000000000000000000000000000000000000000000000000000000000000000800000000000000000000000000000000000000000000000000000000000000004020d14140000000000000000000000000000000000000000000000000000000000000000000000000000000000000000000000000000000000000000000000040000000000000000000000000000000000000000000000000000000000000080000000000000000000000000000000000000000000000000000000000000024000000000000000000000000000000000000000000000000000000000000002a0000000000000000000000000000000000000000000000000000000000000030000000000000000000000000000000000000000000000000000000000000001a00000000000000000000000000a215d8ba66387dca84b284d18c3b4ec3de6e54a000000000000000000000000ba50cd2a20f6da35d788639e581bca8d0b5d4d5f0000000000000000000000000000000000000000000000000000000000000bb8000000000000000000000000000000000000000000000000000000000000003c000000000000000000000000d1b0f8f27aad2292765e2ca645e7ef1a692980c4ffffffffffffffffffffffffffffffffffffffffffffffffffffffffffff15a0000000000000000000000000000000000000000000000000000000000000ea600000000000000000000000000000000000000000000000000000000139a40cfe000000000000000000000000000000000000000000000000000000012d00e280000000000000000000000000000000000000000000000000000000012d00e2800000000000000000000000008ff8e6ee2a0d3427160fba3240e87797036a2bc00000000000000000000000000000000000000000000000000000000000000180000000000000000000000000000000000000000000000000000000000000000000000000000000000000000000000000000000000000000000000000000000400000000000000000000000000a215d8ba66387dca84b284d18c3b4ec3de6e54a000000000000000000000000ba50cd2a20f6da35d788639e581bca8d0b5d4d5f00000000000000000000000000000000000000000000000000000000000000400000000000000000000000000a215d8ba66387dca84b284d18c3b4ec3de6e54a0000000000000000000000008ff8e6ee2a0d3427160fba3240e87797036a2bc00000000000000000000000000000000000000000000000000000000000000040000000000000000000000000ba50cd2a20f6da35d788639e581bca8d0b5d4d5f0000000000000000000000008ff8e6ee2a0d3427160fba3240e87797036a2bc000000000000000000000000000000000000000000000000000000000",
        "nonce": "0x2e",
        "chainId": "0x14a34"
      },
      "additionalContracts": [],
      "isFixedGasLimit": false
    }
  ],
  "receipts": [
    {
      "status": "0x1",
      "cumulativeGasUsed": "0x8b01c7",
      "logs": [
        {
          "address": "0x0a215d8ba66387dca84b284d18c3b4ec3de6e54a",
          "topics": [
            "0x8c5be1e5ebec7d5bd14f71427d1e84f3dd0314c0f7b2291e5b200ac8c7c3b925",
            "0x0000000000000000000000008ff8e6ee2a0d3427160fba3240e87797036a2bc0",
            "0x000000000000000000000000000000000022d473030f116ddee9f6b43ac78ba3"
          ],
          "data": "0xffffffffffffffffffffffffffffffffffffffffffffffffffffffffffffffff",
          "blockHash": "0x93ab589a6621060bd240746106ecf6fef40dbb35ae86ac821a61ddd1233a2633",
          "blockNumber": "0x20771af",
          "blockTimestamp": "0x6922423e",
          "transactionHash": "0x9f93cc972c391df81b9a13ceb4aa54909ca67d4c69cf0c4b3678eb0cb48bfd5d",
          "transactionIndex": "0xe",
          "logIndex": "0x40",
          "removed": false
        }
      ],
      "logsBloom": "0x00000000000000000000000000000000000000000000000000000000000000000000000000000000000000000000000000000000800000000000000000200000000000000000000000004000000000000000000000000800004000000000000000000000000000000000000000000000000000000000000000000000000000000000000000000000000000000000000000000000000000000400000000000000020000000000000000000000100000000000000000000000000000000000000000000000000000000000000000000000080000000000000000000000000000000010000080000000000000000000000004000000000000000000000000000000",
      "type": "0x2",
      "transactionHash": "0x9f93cc972c391df81b9a13ceb4aa54909ca67d4c69cf0c4b3678eb0cb48bfd5d",
      "transactionIndex": "0xe",
      "blockHash": "0x93ab589a6621060bd240746106ecf6fef40dbb35ae86ac821a61ddd1233a2633",
      "blockNumber": "0x20771af",
      "gasUsed": "0x72f0",
      "effectiveGasPrice": "0x124f80",
      "blobGasUsed": "0x79e0",
      "from": "0x8ff8e6ee2a0d3427160fba3240e87797036a2bc0",
      "to": "0x0a215d8ba66387dca84b284d18c3b4ec3de6e54a",
      "contractAddress": null,
      "daFootprintGasScalar": "0x138",
      "l1BaseFeeScalar": "0x44d",
      "l1BlobBaseFee": "0x1",
      "l1BlobBaseFeeScalar": "0xa118b",
      "l1Fee": "0x57",
      "l1GasPrice": "0xc",
      "l1GasUsed": "0x640"
    },
    {
      "status": "0x1",
      "cumulativeGasUsed": "0x8b6ed5",
      "logs": [
        {
          "address": "0x000000000022d473030f116ddee9f6b43ac78ba3",
          "topics": [
            "0xda9fa7c1b00402c17d0161b249b1ab8bbec047c5a52207b9c112deffd817036b",
            "0x0000000000000000000000008ff8e6ee2a0d3427160fba3240e87797036a2bc0",
            "0x0000000000000000000000000a215d8ba66387dca84b284d18c3b4ec3de6e54a",
            "0x0000000000000000000000004b2c77d209d3405f41a037ec6c77f7f5b8e2ca80"
          ],
          "data": "0x000000000000000000000000ffffffffffffffffffffffffffffffffffffffff0000000000000000000000000000000000000000000000000000ffffffffffff",
          "blockHash": "0x93ab589a6621060bd240746106ecf6fef40dbb35ae86ac821a61ddd1233a2633",
          "blockNumber": "0x20771af",
          "blockTimestamp": "0x6922423e",
          "transactionHash": "0x444a780e459db2b89a1d5f1cf2dc671aa5a7c249697a563293e728a3032a6e4e",
          "transactionIndex": "0xf",
          "logIndex": "0x41",
          "removed": false
        }
      ],
      "logsBloom": "0x00010000000000010000000000000000000000000000000000000000000000000000000000000000000000000000000000000000000000000008000010080000000000000000000000000000000000000000000000000000004000000000000000000000000040000000000000000000000000000000000000000000000000000020000000000000000000000000000000000000000000000000000000040000000000000000000000000000000000000000000000000000000000080000000000000000000000000000000000000000080000000000000040000000000000000000000000000000000000000000000004000000000000000000000000000402",
      "type": "0x2",
      "transactionHash": "0x444a780e459db2b89a1d5f1cf2dc671aa5a7c249697a563293e728a3032a6e4e",
      "transactionIndex": "0xf",
      "blockHash": "0x93ab589a6621060bd240746106ecf6fef40dbb35ae86ac821a61ddd1233a2633",
      "blockNumber": "0x20771af",
      "gasUsed": "0x6d0e",
      "effectiveGasPrice": "0x124f80",
      "blobGasUsed": "0x8748",
      "from": "0x8ff8e6ee2a0d3427160fba3240e87797036a2bc0",
      "to": "0x000000000022d473030f116ddee9f6b43ac78ba3",
      "contractAddress": null,
      "daFootprintGasScalar": "0x138",
      "l1BaseFeeScalar": "0x44d",
      "l1BlobBaseFee": "0x1",
      "l1BlobBaseFeeScalar": "0xa118b",
      "l1Fee": "0x60",
      "l1GasPrice": "0xc",
      "l1GasUsed": "0x6f5"
    },
    {
      "status": "0x1",
      "cumulativeGasUsed": "0x8be1c5",
      "logs": [
        {
          "address": "0xba50cd2a20f6da35d788639e581bca8d0b5d4d5f",
          "topics": [
            "0x8c5be1e5ebec7d5bd14f71427d1e84f3dd0314c0f7b2291e5b200ac8c7c3b925",
            "0x0000000000000000000000008ff8e6ee2a0d3427160fba3240e87797036a2bc0",
            "0x000000000000000000000000000000000022d473030f116ddee9f6b43ac78ba3"
          ],
          "data": "0xffffffffffffffffffffffffffffffffffffffffffffffffffffffffffffffff",
          "blockHash": "0x93ab589a6621060bd240746106ecf6fef40dbb35ae86ac821a61ddd1233a2633",
          "blockNumber": "0x20771af",
          "blockTimestamp": "0x6922423e",
          "transactionHash": "0xf76408ab6622ce4e9fb9a949bb24d937f7340d15c0e11edff41fed3074c5cfa6",
          "transactionIndex": "0x10",
          "logIndex": "0x42",
          "removed": false
        }
      ],
      "logsBloom": "0x00000000000000000000000000001000000000000000000000000000000000000000000000000000000000000000000000000000800000000000000200200000000000000000000000004000000000000000000000000800004000000000000000000000000000000000000000000000000000000000000000000000000000000000000000000000000000000000000000000000000000000000000000000000020000000000000000000000000000000000000000000000000000000000000000000000000000000000000000000000080000000000000000000000000000000010000000000000000000000000000004000000002000000000000000000000",
      "type": "0x2",
      "transactionHash": "0xf76408ab6622ce4e9fb9a949bb24d937f7340d15c0e11edff41fed3074c5cfa6",
      "transactionIndex": "0x10",
      "blockHash": "0x93ab589a6621060bd240746106ecf6fef40dbb35ae86ac821a61ddd1233a2633",
      "blockNumber": "0x20771af",
      "gasUsed": "0x72f0",
      "effectiveGasPrice": "0x124f80",
      "blobGasUsed": "0x79e0",
      "from": "0x8ff8e6ee2a0d3427160fba3240e87797036a2bc0",
      "to": "0xba50cd2a20f6da35d788639e581bca8d0b5d4d5f",
      "contractAddress": null,
      "daFootprintGasScalar": "0x138",
      "l1BaseFeeScalar": "0x44d",
      "l1BlobBaseFee": "0x1",
      "l1BlobBaseFeeScalar": "0xa118b",
      "l1Fee": "0x57",
      "l1GasPrice": "0xc",
      "l1GasUsed": "0x640"
    },
    {
      "status": "0x1",
      "cumulativeGasUsed": "0x8c4ed3",
      "logs": [
        {
          "address": "0x000000000022d473030f116ddee9f6b43ac78ba3",
          "topics": [
            "0xda9fa7c1b00402c17d0161b249b1ab8bbec047c5a52207b9c112deffd817036b",
            "0x0000000000000000000000008ff8e6ee2a0d3427160fba3240e87797036a2bc0",
            "0x000000000000000000000000ba50cd2a20f6da35d788639e581bca8d0b5d4d5f",
            "0x0000000000000000000000004b2c77d209d3405f41a037ec6c77f7f5b8e2ca80"
          ],
          "data": "0x000000000000000000000000ffffffffffffffffffffffffffffffffffffffff0000000000000000000000000000000000000000000000000000ffffffffffff",
          "blockHash": "0x93ab589a6621060bd240746106ecf6fef40dbb35ae86ac821a61ddd1233a2633",
          "blockNumber": "0x20771af",
          "blockTimestamp": "0x6922423e",
          "transactionHash": "0x334a87dd20008abdcb6e30e298d487b555079092669ee9a9c4c57ca605f2411e",
          "transactionIndex": "0x11",
          "logIndex": "0x43",
          "removed": false
        }
      ],
      "logsBloom": "0x00010000000000010000000000000000000000000000800000000000000000000000000000000000000000000000000000000000000000000008000010080000000000000000000000000000000800000000000000000000004000000000000000000000000000000000000000000000000000000000000000000000000000000020000000000000000000000000000000000000000000000000000000000000000000000000000000000000000000000000000000000000000000080000000000000000000000000004000000000000080000000000000040000000000000000000000000000000000000000000000004000000000000000000000000000400",
      "type": "0x2",
      "transactionHash": "0x334a87dd20008abdcb6e30e298d487b555079092669ee9a9c4c57ca605f2411e",
      "transactionIndex": "0x11",
      "blockHash": "0x93ab589a6621060bd240746106ecf6fef40dbb35ae86ac821a61ddd1233a2633",
      "blockNumber": "0x20771af",
      "gasUsed": "0x6d0e",
      "effectiveGasPrice": "0x124f80",
      "blobGasUsed": "0x8748",
      "from": "0x8ff8e6ee2a0d3427160fba3240e87797036a2bc0",
      "to": "0x000000000022d473030f116ddee9f6b43ac78ba3",
      "contractAddress": null,
      "daFootprintGasScalar": "0x138",
      "l1BaseFeeScalar": "0x44d",
      "l1BlobBaseFee": "0x1",
      "l1BlobBaseFeeScalar": "0xa118b",
      "l1Fee": "0x60",
      "l1GasPrice": "0xc",
      "l1GasUsed": "0x6f5"
    },
    {
      "status": "0x1",
      "cumulativeGasUsed": "0x931f20",
      "logs": [
        {
          "address": "0x05e73354cfdd6745c338b50bcfdfa3aa6fa03408",
          "topics": [
            "0xdd466e674ea557f56295e2d0218a125ea4b4f0f6f3307b95f85e6110838d6438",
            "0x3d3fb60326cde7d46d87e0c48e1fd9efec5f9380583b17ab28690858b36c4cca",
            "0x0000000000000000000000000a215d8ba66387dca84b284d18c3b4ec3de6e54a",
            "0x000000000000000000000000ba50cd2a20f6da35d788639e581bca8d0b5d4d5f"
          ],
          "data": "0x0000000000000000000000000000000000000000000000000000000000000bb8000000000000000000000000000000000000000000000000000000000000003c000000000000000000000000d1b0f8f27aad2292765e2ca645e7ef1a692980c400000000000000000000000000000000000000010000000000000000000000000000000000000000000000000000000000000000000000000000000000000000",
          "blockHash": "0x93ab589a6621060bd240746106ecf6fef40dbb35ae86ac821a61ddd1233a2633",
          "blockNumber": "0x20771af",
          "blockTimestamp": "0x6922423e",
          "transactionHash": "0x8294b3a8c56f4cd22c175ab21d4c51103958dfe91ab780b297b40083a5aba116",
          "transactionIndex": "0x12",
          "logIndex": "0x44",
          "removed": false
        },
        {
          "address": "0x4b2c77d209d3405f41a037ec6c77f7f5b8e2ca80",
          "topics": [
            "0xddf252ad1be2c89b69c2b068fc378daa952ba7f163c4a11628f55a4df523b3ef",
            "0x0000000000000000000000000000000000000000000000000000000000000000",
            "0x0000000000000000000000008ff8e6ee2a0d3427160fba3240e87797036a2bc0",
            "0x0000000000000000000000000000000000000000000000000000000000001ff9"
          ],
          "data": "0x",
          "blockHash": "0x93ab589a6621060bd240746106ecf6fef40dbb35ae86ac821a61ddd1233a2633",
          "blockNumber": "0x20771af",
          "blockTimestamp": "0x6922423e",
          "transactionHash": "0x8294b3a8c56f4cd22c175ab21d4c51103958dfe91ab780b297b40083a5aba116",
          "transactionIndex": "0x12",
          "logIndex": "0x45",
          "removed": false
        },
        {
          "address": "0x05e73354cfdd6745c338b50bcfdfa3aa6fa03408",
          "topics": [
            "0xf208f4912782fd25c7f114ca3723a2d5dd6f3bcc3ac8db5af63baa85f711d5ec",
            "0x3d3fb60326cde7d46d87e0c48e1fd9efec5f9380583b17ab28690858b36c4cca",
            "0x0000000000000000000000004b2c77d209d3405f41a037ec6c77f7f5b8e2ca80"
          ],
          "data": "0xffffffffffffffffffffffffffffffffffffffffffffffffffffffffffff15a0000000000000000000000000000000000000000000000000000000000000ea600000000000000000000000000000000000000000000000000000000139a40cfe0000000000000000000000000000000000000000000000000000000000001ff9",
          "blockHash": "0x93ab589a6621060bd240746106ecf6fef40dbb35ae86ac821a61ddd1233a2633",
          "blockNumber": "0x20771af",
          "blockTimestamp": "0x6922423e",
          "transactionHash": "0x8294b3a8c56f4cd22c175ab21d4c51103958dfe91ab780b297b40083a5aba116",
          "transactionIndex": "0x12",
          "logIndex": "0x46",
          "removed": false
        },
        {
          "address": "0x0a215d8ba66387dca84b284d18c3b4ec3de6e54a",
          "topics": [
            "0xddf252ad1be2c89b69c2b068fc378daa952ba7f163c4a11628f55a4df523b3ef",
            "0x0000000000000000000000008ff8e6ee2a0d3427160fba3240e87797036a2bc0",
            "0x00000000000000000000000005e73354cfdd6745c338b50bcfdfa3aa6fa03408"
          ],
          "data": "0x000000000000000000000000000000000000000000000000000000012a05f200",
          "blockHash": "0x93ab589a6621060bd240746106ecf6fef40dbb35ae86ac821a61ddd1233a2633",
          "blockNumber": "0x20771af",
          "blockTimestamp": "0x6922423e",
          "transactionHash": "0x8294b3a8c56f4cd22c175ab21d4c51103958dfe91ab780b297b40083a5aba116",
          "transactionIndex": "0x12",
          "logIndex": "0x47",
          "removed": false
        },
        {
          "address": "0x0a215d8ba66387dca84b284d18c3b4ec3de6e54a",
          "topics": [
            "0x8c5be1e5ebec7d5bd14f71427d1e84f3dd0314c0f7b2291e5b200ac8c7c3b925",
            "0x0000000000000000000000008ff8e6ee2a0d3427160fba3240e87797036a2bc0",
            "0x000000000000000000000000000000000022d473030f116ddee9f6b43ac78ba3"
          ],
          "data": "0xfffffffffffffffffffffffffffffffffffffffffffffffffffffffed5fa0dff",
          "blockHash": "0x93ab589a6621060bd240746106ecf6fef40dbb35ae86ac821a61ddd1233a2633",
          "blockNumber": "0x20771af",
          "blockTimestamp": "0x6922423e",
          "transactionHash": "0x8294b3a8c56f4cd22c175ab21d4c51103958dfe91ab780b297b40083a5aba116",
          "transactionIndex": "0x12",
          "logIndex": "0x48",
          "removed": false
        },
        {
          "address": "0xba50cd2a20f6da35d788639e581bca8d0b5d4d5f",
          "topics": [
            "0xddf252ad1be2c89b69c2b068fc378daa952ba7f163c4a11628f55a4df523b3ef",
            "0x0000000000000000000000008ff8e6ee2a0d3427160fba3240e87797036a2bc0",
            "0x00000000000000000000000005e73354cfdd6745c338b50bcfdfa3aa6fa03408"
          ],
          "data": "0x000000000000000000000000000000000000000000000000000000012a05f200",
          "blockHash": "0x93ab589a6621060bd240746106ecf6fef40dbb35ae86ac821a61ddd1233a2633",
          "blockNumber": "0x20771af",
          "blockTimestamp": "0x6922423e",
          "transactionHash": "0x8294b3a8c56f4cd22c175ab21d4c51103958dfe91ab780b297b40083a5aba116",
          "transactionIndex": "0x12",
          "logIndex": "0x49",
          "removed": false
        },
        {
          "address": "0xba50cd2a20f6da35d788639e581bca8d0b5d4d5f",
          "topics": [
            "0x8c5be1e5ebec7d5bd14f71427d1e84f3dd0314c0f7b2291e5b200ac8c7c3b925",
            "0x0000000000000000000000008ff8e6ee2a0d3427160fba3240e87797036a2bc0",
            "0x000000000000000000000000000000000022d473030f116ddee9f6b43ac78ba3"
          ],
          "data": "0xfffffffffffffffffffffffffffffffffffffffffffffffffffffffed5fa0dff",
          "blockHash": "0x93ab589a6621060bd240746106ecf6fef40dbb35ae86ac821a61ddd1233a2633",
          "blockNumber": "0x20771af",
          "blockTimestamp": "0x6922423e",
          "transactionHash": "0x8294b3a8c56f4cd22c175ab21d4c51103958dfe91ab780b297b40083a5aba116",
          "transactionIndex": "0x12",
          "logIndex": "0x4a",
          "removed": false
        }
      ],
      "logsBloom": "0x00000000000000010000000000001000000000000000800000000000000000000100000100000000000000000000000000000000800000000008000210200800080000000010000000004008000800000000000000100800004000008000000000008002020040000000000000000800000000000000000000000010000000000000000005000008000000000000000000000081000000000400000000240000020004000000000000000000100000000000000000000000000000000000000000000002001000000004080000000000080000000000000000000000000020000010000080000000000000000800000004000000002000000000000004000002",
      "type": "0x2",
      "transactionHash": "0x8294b3a8c56f4cd22c175ab21d4c51103958dfe91ab780b297b40083a5aba116",
      "transactionIndex": "0x12",
      "blockHash": "0x93ab589a6621060bd240746106ecf6fef40dbb35ae86ac821a61ddd1233a2633",
      "blockNumber": "0x20771af",
      "gasUsed": "0x6d04d",
      "effectiveGasPrice": "0x124f80",
      "blobGasUsed": "0x19848",
      "from": "0x8ff8e6ee2a0d3427160fba3240e87797036a2bc0",
      "to": "0x4b2c77d209d3405f41a037ec6c77f7f5b8e2ca80",
      "contractAddress": null,
      "daFootprintGasScalar": "0x138",
      "l1BaseFeeScalar": "0x44d",
      "l1BlobBaseFee": "0x1",
      "l1BlobBaseFeeScalar": "0xa118b",
      "l1Fee": "0x124",
      "l1GasPrice": "0xc",
      "l1GasUsed": "0x14f8"
    }
  ],
  "libraries": [],
  "pending": [],
  "returns": {},
  "timestamp": 1763852862095,
  "chain": 84532,
  "commit": "c878f44"
}