{
  "transactions": [
    {
      "hash": "0x4eef918e0a8e9cc2de8241c54e466a42a9ef525c98a93891379477e5b00f149b",
      "transactionType": "CALL",
      "contractName": null,
      "contractAddress": "0x0a215d8ba66387dca84b284d18c3b4ec3de6e54a",
      "function": "approve(address,uint256)",
      "arguments": [
        "0x000000000022D473030F116dDEE9F6B43aC78BA3",
        "115792089237316195423570985008687907853269984665640564039457584007913129639935"
      ],
      "transaction": {
        "from": "0x8ff8e6ee2a0d3427160fba3240e87797036a2bc0",
        "to": "0x0a215d8ba66387dca84b284d18c3b4ec3de6e54a",
        "gas": "0x9ec1",
        "value": "0x0",
        "input": "0x095ea7b3000000000000000000000000000000000022d473030f116ddee9f6b43ac78ba3ffffffffffffffffffffffffffffffffffffffffffffffffffffffffffffffff",
        "nonce": "0x24",
        "chainId": "0x14a34"
      },
      "additionalContracts": [],
      "isFixedGasLimit": false
    },
    {
      "hash": "0x190a2e53ec0031f39e2e305b64905600aa65e19474341be011f30720a1b7b034",
      "transactionType": "CALL",
      "contractName": null,
      "contractAddress": "0x000000000022d473030f116ddee9f6b43ac78ba3",
      "function": "approve(address,address,uint160,uint48)",
      "arguments": [
        "0x0a215D8ba66387DCA84B284D18c3B4ec3de6E54a",
        "0x4B2C77d209D3405F41a037Ec6c77F7F5b8e2ca80",
        "1461501637330902918203684832716283019655932542975",
        "281474976710655"
      ],
      "transaction": {
        "from": "0x8ff8e6ee2a0d3427160fba3240e87797036a2bc0",
        "to": "0x000000000022d473030f116ddee9f6b43ac78ba3",
        "gas": "0x96a0",
        "value": "0x0",
        "input": "0x87517c450000000000000000000000000a215d8ba66387dca84b284d18c3b4ec3de6e54a0000000000000000000000004b2c77d209d3405f41a037ec6c77f7f5b8e2ca80000000000000000000000000ffffffffffffffffffffffffffffffffffffffff0000000000000000000000000000000000000000000000000000ffffffffffff",
        "nonce": "0x25",
        "chainId": "0x14a34"
      },
      "additionalContracts": [],
      "isFixedGasLimit": false
    },
    {
      "hash": "0x75ce115feee003f3e8bc607cfa130a03e27a7f0a8e9c6c572a9e6b67331e48d2",
      "transactionType": "CALL",
      "contractName": null,
      "contractAddress": "0xba50cd2a20f6da35d788639e581bca8d0b5d4d5f",
      "function": "approve(address,uint256)",
      "arguments": [
        "0x000000000022D473030F116dDEE9F6B43aC78BA3",
        "115792089237316195423570985008687907853269984665640564039457584007913129639935"
      ],
      "transaction": {
        "from": "0x8ff8e6ee2a0d3427160fba3240e87797036a2bc0",
        "to": "0xba50cd2a20f6da35d788639e581bca8d0b5d4d5f",
        "gas": "0x9ec1",
        "value": "0x0",
        "input": "0x095ea7b3000000000000000000000000000000000022d473030f116ddee9f6b43ac78ba3ffffffffffffffffffffffffffffffffffffffffffffffffffffffffffffffff",
        "nonce": "0x26",
        "chainId": "0x14a34"
      },
      "additionalContracts": [],
      "isFixedGasLimit": false
    },
    {
      "hash": "0x536b6dcd94cc837366aaa6cf75db774b65fcc66c4e8bba205340afdc80b36e7b",
      "transactionType": "CALL",
      "contractName": null,
      "contractAddress": "0x000000000022d473030f116ddee9f6b43ac78ba3",
      "function": "approve(address,address,uint160,uint48)",
      "arguments": [
        "0xba50Cd2A20f6DA35D788639E581bca8d0B5d4D5f",
        "0x4B2C77d209D3405F41a037Ec6c77F7F5b8e2ca80",
        "1461501637330902918203684832716283019655932542975",
        "281474976710655"
      ],
      "transaction": {
        "from": "0x8ff8e6ee2a0d3427160fba3240e87797036a2bc0",
        "to": "0x000000000022d473030f116ddee9f6b43ac78ba3",
        "gas": "0x96a0",
        "value": "0x0",
        "input": "0x87517c45000000000000000000000000ba50cd2a20f6da35d788639e581bca8d0b5d4d5f0000000000000000000000004b2c77d209d3405f41a037ec6c77f7f5b8e2ca80000000000000000000000000ffffffffffffffffffffffffffffffffffffffff0000000000000000000000000000000000000000000000000000ffffffffffff",
        "nonce": "0x27",
        "chainId": "0x14a34"
      },
      "additionalContracts": [],
      "isFixedGasLimit": false
    },
    {
      "hash": "0x36712c6fc326948739ffd75659e183e96dbb8586b026a8ba7d56fc8bc899af24",
      "transactionType": "CALL",
      "contractName": null,
      "contractAddress": "0x4b2c77d209d3405f41a037ec6c77f7f5b8e2ca80",
      "function": "multicall(bytes[])",
      "arguments": [
        "[0xf70204050000000000000000000000000a215d8ba66387dca84b284d18c3b4ec3de6e54a000000000000000000000000ba50cd2a20f6da35d788639e581bca8d0b5d4d5f0000000000000000000000000000000000000000000000000000000000000bb8000000000000000000000000000000000000000000000000000000000000003c0000000000000000000000001d16eade6be2d9037f458d53d0b0fd216fc740c4000000000000000000000000000000000000000100000000000000000000000000000000000000000000000000000000000000000000000000000000000000e00000000000000000000000000000000000000000000000000000000000000000, 0xdd46508f00000000000000000000000000000000000000000000000000000000000000400000000000000000000000000000000000000000000000000000000069224d8c0000000000000000000000000000000000000000000000000000000000000400000000000000000000000000000000000000000000000000000000000000004000000000000000000000000000000000000000000000000000000000000000800000000000000000000000000000000000000000000000000000000000000004020d14140000000000000000000000000000000000000000000000000000000000000000000000000000000000000000000000000000000000000000000000040000000000000000000000000000000000000000000000000000000000000080000000000000000000000000000000000000000000000000000000000000024000000000000000000000000000000000000000000000000000000000000002a0000000000000000000000000000000000000000000000000000000000000030000000000000000000000000000000000000000000000000000000000000001a00000000000000000000000000a215d8ba66387dca84b284d18c3b4ec3de6e54a000000000000000000000000ba50cd2a20f6da35d788639e581bca8d0b5d4d5f0000000000000000000000000000000000000000000000000000000000000bb8000000000000000000000000000000000000000000000000000000000000003c0000000000000000000000001d16eade6be2d9037f458d53d0b0fd216fc740c4ffffffffffffffffffffffffffffffffffffffffffffffffffffffffffff15a0000000000000000000000000000000000000000000000000000000000000ea600000000000000000000000000000000000000000000000000000000139a40cfe000000000000000000000000000000000000000000000000000000012d00e280000000000000000000000000000000000000000000000000000000012d00e2800000000000000000000000008ff8e6ee2a0d3427160fba3240e87797036a2bc00000000000000000000000000000000000000000000000000000000000000180000000000000000000000000000000000000000000000000000000000000000000000000000000000000000000000000000000000000000000000000000000400000000000000000000000000a215d8ba66387dca84b284d18c3b4ec3de6e54a000000000000000000000000ba50cd2a20f6da35d788639e581bca8d0b5d4d5f00000000000000000000000000000000000000000000000000000000000000400000000000000000000000000a215d8ba66387dca84b284d18c3b4ec3de6e54a0000000000000000000000008ff8e6ee2a0d3427160fba3240e87797036a2bc00000000000000000000000000000000000000000000000000000000000000040000000000000000000000000ba50cd2a20f6da35d788639e581bca8d0b5d4d5f0000000000000000000000008ff8e6ee2a0d3427160fba3240e87797036a2bc0]"
      ],
      "transaction": {
        "from": "0x8ff8e6ee2a0d3427160fba3240e87797036a2bc0",
        "to": "0x4b2c77d209d3405f41a037ec6c77f7f5b8e2ca80",
        "gas": "0x58082",
        "value": "0x0",
        "input": "0xac9650d800000000000000000000000000000000000000000000000000000000000000200000000000000000000000000000000000000000000000000000000000000002000000000000000000000000000000000000000000000000000000000000004000000000000000000000000000000000000000000000000000000000000001800000000000000000000000000000000000000000000000000000000000000104f70204050000000000000000000000000a215d8ba66387dca84b284d18c3b4ec3de6e54a000000000000000000000000ba50cd2a20f6da35d788639e581bca8d0b5d4d5f0000000000000000000000000000000000000000000000000000000000000bb8000000000000000000000000000000000000000000000000000000000000003c0000000000000000000000001d16eade6be2d9037f458d53d0b0fd216fc740c4000000000000000000000000000000000000000100000000000000000000000000000000000000000000000000000000000000000000000000000000000000e00000000000000000000000000000000000000000000000000000000000000000000000000000000000000000000000000000000000000000000000000000000000000000000000000000000000000000000000000000000000000464dd46508f00000000000000000000000000000000000000000000000000000000000000400000000000000000000000000000000000000000000000000000000069224d8c0000000000000000000000000000000000000000000000000000000000000400000000000000000000000000000000000000000000000000000000000000004000000000000000000000000000000000000000000000000000000000000000800000000000000000000000000000000000000000000000000000000000000004020d14140000000000000000000000000000000000000000000000000000000000000000000000000000000000000000000000000000000000000000000000040000000000000000000000000000000000000000000000000000000000000080000000000000000000000000000000000000000000000000000000000000024000000000000000000000000000000000000000000000000000000000000002a0000000000000000000000000000000000000000000000000000000000000030000000000000000000000000000000000000000000000000000000000000001a00000000000000000000000000a215d8ba66387dca84b284d18c3b4ec3de6e54a000000000000000000000000ba50cd2a20f6da35d788639e581bca8d0b5d4d5f0000000000000000000000000000000000000000000000000000000000000bb8000000000000000000000000000000000000000000000000000000000000003c0000000000000000000000001d16eade6be2d9037f458d53d0b0fd216fc740c4ffffffffffffffffffffffffffffffffffffffffffffffffffffffffffff15a0000000000000000000000000000000000000000000000000000000000000ea600000000000000000000000000000000000000000000000000000000139a40cfe000000000000000000000000000000000000000000000000000000012d00e280000000000000000000000000000000000000000000000000000000012d00e2800000000000000000000000008ff8e6ee2a0d3427160fba3240e87797036a2bc00000000000000000000000000000000000000000000000000000000000000180000000000000000000000000000000000000000000000000000000000000000000000000000000000000000000000000000000000000000000000000000000400000000000000000000000000a215d8ba66387dca84b284d18c3b4ec3de6e54a000000000000000000000000ba50cd2a20f6da35d788639e581bca8d0b5d4d5f00000000000000000000000000000000000000000000000000000000000000400000000000000000000000000a215d8ba66387dca84b284d18c3b4ec3de6e54a0000000000000000000000008ff8e6ee2a0d3427160fba3240e87797036a2bc00000000000000000000000000000000000000000000000000000000000000040000000000000000000000000ba50cd2a20f6da35d788639e581bca8d0b5d4d5f0000000000000000000000008ff8e6ee2a0d3427160fba3240e87797036a2bc000000000000000000000000000000000000000000000000000000000",
        "nonce": "0x28",
        "chainId": "0x14a34"
      },
      "additionalContracts": [],
      "isFixedGasLimit": false
    }
  ],
  "receipts": [
    {
      "status": "0x1",
      "cumulativeGasUsed": "0x884667",
      "logs": [
        {
          "address": "0x0a215d8ba66387dca84b284d18c3b4ec3de6e54a",
          "topics": [
            "0x8c5be1e5ebec7d5bd14f71427d1e84f3dd0314c0f7b2291e5b200ac8c7c3b925",
            "0x0000000000000000000000008ff8e6ee2a0d3427160fba3240e87797036a2bc0",
            "0x000000000000000000000000000000000022d473030f116ddee9f6b43ac78ba3"
          ],
          "data": "0xffffffffffffffffffffffffffffffffffffffffffffffffffffffffffffffff",
          "blockHash": "0xcc33fde52756c0f9e3a131b214af81451b7d3edcbe91a000017b0f9a5b210f16",
          "blockNumber": "0x207704f",
          "blockTimestamp": "0x69223f7e",
          "transactionHash": "0x4eef918e0a8e9cc2de8241c54e466a42a9ef525c98a93891379477e5b00f149b",
          "transactionIndex": "0x42",
          "logIndex": "0xaf",
          "removed": false
        }
      ],
      "logsBloom": "0x00000000000000000000000000000000000000000000000000000000000000000000000000000000000000000000000000000000800000000000000000200000000000000000000000004000000000000000000000000800004000000000000000000000000000000000000000000000000000000000000000000000000000000000000000000000000000000000000000000000000000000400000000000000020000000000000000000000100000000000000000000000000000000000000000000000000000000000000000000000080000000000000000000000000000000010000080000000000000000000000004000000000000000000000000000000",
      "type": "0x2",
      "transactionHash": "0x4eef918e0a8e9cc2de8241c54e466a42a9ef525c98a93891379477e5b00f149b",
      "transactionIndex": "0x42",
      "blockHash": "0xcc33fde52756c0f9e3a131b214af81451b7d3edcbe91a000017b0f9a5b210f16",
      "blockNumber": "0x207704f",
      "gasUsed": "0x72f0",
      "effectiveGasPrice": "0x12529b",
      "blobGasUsed": "0x79e0",
      "from": "0x8ff8e6ee2a0d3427160fba3240e87797036a2bc0",
      "to": "0x0a215d8ba66387dca84b284d18c3b4ec3de6e54a",
      "contractAddress": null,
      "daFootprintGasScalar": "0x138",
      "l1BaseFeeScalar": "0x44d",
      "l1BlobBaseFee": "0x1",
      "l1BlobBaseFeeScalar": "0xa118b",
      "l1Fee": "0x58",
      "l1GasPrice": "0xd",
      "l1GasUsed": "0x640"
    },
    {
      "status": "0x1",
      "cumulativeGasUsed": "0x88b375",
      "logs": [
        {
          "address": "0x000000000022d473030f116ddee9f6b43ac78ba3",
          "topics": [
            "0xda9fa7c1b00402c17d0161b249b1ab8bbec047c5a52207b9c112deffd817036b",
            "0x0000000000000000000000008ff8e6ee2a0d3427160fba3240e87797036a2bc0",
            "0x0000000000000000000000000a215d8ba66387dca84b284d18c3b4ec3de6e54a",
            "0x0000000000000000000000004b2c77d209d3405f41a037ec6c77f7f5b8e2ca80"
          ],
          "data": "0x000000000000000000000000ffffffffffffffffffffffffffffffffffffffff0000000000000000000000000000000000000000000000000000ffffffffffff",
          "blockHash": "0xcc33fde52756c0f9e3a131b214af81451b7d3edcbe91a000017b0f9a5b210f16",
          "blockNumber": "0x207704f",
          "blockTimestamp": "0x69223f7e",
          "transactionHash": "0x190a2e53ec0031f39e2e305b64905600aa65e19474341be011f30720a1b7b034",
          "transactionIndex": "0x43",
          "logIndex": "0xb0",
          "removed": false
        }
      ],
      "logsBloom": "0x00010000000000010000000000000000000000000000000000000000000000000000000000000000000000000000000000000000000000000008000010080000000000000000000000000000000000000000000000000000004000000000000000000000000040000000000000000000000000000000000000000000000000000020000000000000000000000000000000000000000000000000000000040000000000000000000000000000000000000000000000000000000000080000000000000000000000000000000000000000080000000000000040000000000000000000000000000000000000000000000004000000000000000000000000000402",
      "type": "0x2",
      "transactionHash": "0x190a2e53ec0031f39e2e305b64905600aa65e19474341be011f30720a1b7b034",
      "transactionIndex": "0x43",
      "blockHash": "0xcc33fde52756c0f9e3a131b214af81451b7d3edcbe91a000017b0f9a5b210f16",
      "blockNumber": "0x207704f",
      "gasUsed": "0x6d0e",
      "effectiveGasPrice": "0x12529b",
      "blobGasUsed": "0x8748",
      "from": "0x8ff8e6ee2a0d3427160fba3240e87797036a2bc0",
      "to": "0x000000000022d473030f116ddee9f6b43ac78ba3",
      "contractAddress": null,
      "daFootprintGasScalar": "0x138",
      "l1BaseFeeScalar": "0x44d",
      "l1BlobBaseFee": "0x1",
      "l1BlobBaseFeeScalar": "0xa118b",
      "l1Fee": "0x62",
      "l1GasPrice": "0xd",
      "l1GasUsed": "0x6f5"
    },
    {
      "status": "0x1",
      "cumulativeGasUsed": "0x892665",
      "logs": [
        {
          "address": "0xba50cd2a20f6da35d788639e581bca8d0b5d4d5f",
          "topics": [
            "0x8c5be1e5ebec7d5bd14f71427d1e84f3dd0314c0f7b2291e5b200ac8c7c3b925",
            "0x0000000000000000000000008ff8e6ee2a0d3427160fba3240e87797036a2bc0",
            "0x000000000000000000000000000000000022d473030f116ddee9f6b43ac78ba3"
          ],
          "data": "0xffffffffffffffffffffffffffffffffffffffffffffffffffffffffffffffff",
          "blockHash": "0xcc33fde52756c0f9e3a131b214af81451b7d3edcbe91a000017b0f9a5b210f16",
          "blockNumber": "0x207704f",
          "blockTimestamp": "0x69223f7e",
          "transactionHash": "0x75ce115feee003f3e8bc607cfa130a03e27a7f0a8e9c6c572a9e6b67331e48d2",
          "transactionIndex": "0x44",
          "logIndex": "0xb1",
          "removed": false
        }
      ],
      "logsBloom": "0x00000000000000000000000000001000000000000000000000000000000000000000000000000000000000000000000000000000800000000000000200200000000000000000000000004000000000000000000000000800004000000000000000000000000000000000000000000000000000000000000000000000000000000000000000000000000000000000000000000000000000000000000000000000020000000000000000000000000000000000000000000000000000000000000000000000000000000000000000000000080000000000000000000000000000000010000000000000000000000000000004000000002000000000000000000000",
      "type": "0x2",
      "transactionHash": "0x75ce115feee003f3e8bc607cfa130a03e27a7f0a8e9c6c572a9e6b67331e48d2",
      "transactionIndex": "0x44",
      "blockHash": "0xcc33fde52756c0f9e3a131b214af81451b7d3edcbe91a000017b0f9a5b210f16",
      "blockNumber": "0x207704f",
      "gasUsed": "0x72f0",
      "effectiveGasPrice": "0x12529b",
      "blobGasUsed": "0x79e0",
      "from": "0x8ff8e6ee2a0d3427160fba3240e87797036a2bc0",
      "to": "0xba50cd2a20f6da35d788639e581bca8d0b5d4d5f",
      "contractAddress": null,
      "daFootprintGasScalar": "0x138",
      "l1BaseFeeScalar": "0x44d",
      "l1BlobBaseFee": "0x1",
      "l1BlobBaseFeeScalar": "0xa118b",
      "l1Fee": "0x58",
      "l1GasPrice": "0xd",
      "l1GasUsed": "0x640"
    },
    {
      "status": "0x1",
      "cumulativeGasUsed": "0x899373",
      "logs": [
        {
          "address": "0x000000000022d473030f116ddee9f6b43ac78ba3",
          "topics": [
            "0xda9fa7c1b00402c17d0161b249b1ab8bbec047c5a52207b9c112deffd817036b",
            "0x0000000000000000000000008ff8e6ee2a0d3427160fba3240e87797036a2bc0",
            "0x000000000000000000000000ba50cd2a20f6da35d788639e581bca8d0b5d4d5f",
            "0x0000000000000000000000004b2c77d209d3405f41a037ec6c77f7f5b8e2ca80"
          ],
          "data": "0x000000000000000000000000ffffffffffffffffffffffffffffffffffffffff0000000000000000000000000000000000000000000000000000ffffffffffff",
          "blockHash": "0xcc33fde52756c0f9e3a131b214af81451b7d3edcbe91a000017b0f9a5b210f16",
          "blockNumber": "0x207704f",
          "blockTimestamp": "0x69223f7e",
          "transactionHash": "0x536b6dcd94cc837366aaa6cf75db774b65fcc66c4e8bba205340afdc80b36e7b",
          "transactionIndex": "0x45",
          "logIndex": "0xb2",
          "removed": false
        }
      ],
      "logsBloom": "0x00010000000000010000000000000000000000000000800000000000000000000000000000000000000000000000000000000000000000000008000010080000000000000000000000000000000800000000000000000000004000000000000000000000000000000000000000000000000000000000000000000000000000000020000000000000000000000000000000000000000000000000000000000000000000000000000000000000000000000000000000000000000000080000000000000000000000000004000000000000080000000000000040000000000000000000000000000000000000000000000004000000000000000000000000000400",
      "type": "0x2",
      "transactionHash": "0x536b6dcd94cc837366aaa6cf75db774b65fcc66c4e8bba205340afdc80b36e7b",
      "transactionIndex": "0x45",
      "blockHash": "0xcc33fde52756c0f9e3a131b214af81451b7d3edcbe91a000017b0f9a5b210f16",
      "blockNumber": "0x207704f",
      "gasUsed": "0x6d0e",
      "effectiveGasPrice": "0x12529b",
      "blobGasUsed": "0x8748",
      "from": "0x8ff8e6ee2a0d3427160fba3240e87797036a2bc0",
      "to": "0x000000000022d473030f116ddee9f6b43ac78ba3",
      "contractAddress": null,
      "daFootprintGasScalar": "0x138",
      "l1BaseFeeScalar": "0x44d",
      "l1BlobBaseFee": "0x1",
      "l1BlobBaseFeeScalar": "0xa118b",
      "l1Fee": "0x62",
      "l1GasPrice": "0xd",
      "l1GasUsed": "0x6f5"
    },
    {
      "status": "0x1",
      "cumulativeGasUsed": "0x8d8f30",
      "logs": [
        {
          "address": "0x4b2c77d209d3405f41a037ec6c77f7f5b8e2ca80",
          "topics": [
            "0xddf252ad1be2c89b69c2b068fc378daa952ba7f163c4a11628f55a4df523b3ef",
            "0x0000000000000000000000000000000000000000000000000000000000000000",
            "0x0000000000000000000000008ff8e6ee2a0d3427160fba3240e87797036a2bc0",
            "0x0000000000000000000000000000000000000000000000000000000000001ff8"
          ],
          "data": "0x",
          "blockHash": "0xcc33fde52756c0f9e3a131b214af81451b7d3edcbe91a000017b0f9a5b210f16",
          "blockNumber": "0x207704f",
          "blockTimestamp": "0x69223f7e",
          "transactionHash": "0x36712c6fc326948739ffd75659e183e96dbb8586b026a8ba7d56fc8bc899af24",
          "transactionIndex": "0x46",
          "logIndex": "0xb3",
          "removed": false
        },
        {
          "address": "0x05e73354cfdd6745c338b50bcfdfa3aa6fa03408",
          "topics": [
            "0xf208f4912782fd25c7f114ca3723a2d5dd6f3bcc3ac8db5af63baa85f711d5ec",
            "0x651eb567f8f046f1a018908e5a91d5cc28f078b3a9b801cf645d7c1aa292f0d4",
            "0x0000000000000000000000004b2c77d209d3405f41a037ec6c77f7f5b8e2ca80"
          ],
          "data": "0xffffffffffffffffffffffffffffffffffffffffffffffffffffffffffff15a0000000000000000000000000000000000000000000000000000000000000ea600000000000000000000000000000000000000000000000000000000139a40cfe0000000000000000000000000000000000000000000000000000000000001ff8",
          "blockHash": "0xcc33fde52756c0f9e3a131b214af81451b7d3edcbe91a000017b0f9a5b210f16",
          "blockNumber": "0x207704f",
          "blockTimestamp": "0x69223f7e",
          "transactionHash": "0x36712c6fc326948739ffd75659e183e96dbb8586b026a8ba7d56fc8bc899af24",
          "transactionIndex": "0x46",
          "logIndex": "0xb4",
          "removed": false
        },
        {
          "address": "0x0a215d8ba66387dca84b284d18c3b4ec3de6e54a",
          "topics": [
            "0xddf252ad1be2c89b69c2b068fc378daa952ba7f163c4a11628f55a4df523b3ef",
            "0x0000000000000000000000008ff8e6ee2a0d3427160fba3240e87797036a2bc0",
            "0x00000000000000000000000005e73354cfdd6745c338b50bcfdfa3aa6fa03408"
          ],
          "data": "0x000000000000000000000000000000000000000000000000000000012a05f200",
          "blockHash": "0xcc33fde52756c0f9e3a131b214af81451b7d3edcbe91a000017b0f9a5b210f16",
          "blockNumber": "0x207704f",
          "blockTimestamp": "0x69223f7e",
          "transactionHash": "0x36712c6fc326948739ffd75659e183e96dbb8586b026a8ba7d56fc8bc899af24",
          "transactionIndex": "0x46",
          "logIndex": "0xb5",
          "removed": false
        },
        {
          "address": "0x0a215d8ba66387dca84b284d18c3b4ec3de6e54a",
          "topics": [
            "0x8c5be1e5ebec7d5bd14f71427d1e84f3dd0314c0f7b2291e5b200ac8c7c3b925",
            "0x0000000000000000000000008ff8e6ee2a0d3427160fba3240e87797036a2bc0",
            "0x000000000000000000000000000000000022d473030f116ddee9f6b43ac78ba3"
          ],
          "data": "0xfffffffffffffffffffffffffffffffffffffffffffffffffffffffed5fa0dff",
          "blockHash": "0xcc33fde52756c0f9e3a131b214af81451b7d3edcbe91a000017b0f9a5b210f16",
          "blockNumber": "0x207704f",
          "blockTimestamp": "0x69223f7e",
          "transactionHash": "0x36712c6fc326948739ffd75659e183e96dbb8586b026a8ba7d56fc8bc899af24",
          "transactionIndex": "0x46",
          "logIndex": "0xb6",
          "removed": false
        },
        {
          "address": "0xba50cd2a20f6da35d788639e581bca8d0b5d4d5f",
          "topics": [
            "0xddf252ad1be2c89b69c2b068fc378daa952ba7f163c4a11628f55a4df523b3ef",
            "0x0000000000000000000000008ff8e6ee2a0d3427160fba3240e87797036a2bc0",
            "0x00000000000000000000000005e73354cfdd6745c338b50bcfdfa3aa6fa03408"
          ],
          "data": "0x000000000000000000000000000000000000000000000000000000012a05f200",
          "blockHash": "0xcc33fde52756c0f9e3a131b214af81451b7d3edcbe91a000017b0f9a5b210f16",
          "blockNumber": "0x207704f",
          "blockTimestamp": "0x69223f7e",
          "transactionHash": "0x36712c6fc326948739ffd75659e183e96dbb8586b026a8ba7d56fc8bc899af24",
          "transactionIndex": "0x46",
          "logIndex": "0xb7",
          "removed": false
        },
        {
          "address": "0xba50cd2a20f6da35d788639e581bca8d0b5d4d5f",
          "topics": [
            "0x8c5be1e5ebec7d5bd14f71427d1e84f3dd0314c0f7b2291e5b200ac8c7c3b925",
            "0x0000000000000000000000008ff8e6ee2a0d3427160fba3240e87797036a2bc0",
            "0x000000000000000000000000000000000022d473030f116ddee9f6b43ac78ba3"
          ],
          "data": "0xfffffffffffffffffffffffffffffffffffffffffffffffffffffffed5fa0dff",
          "blockHash": "0xcc33fde52756c0f9e3a131b214af81451b7d3edcbe91a000017b0f9a5b210f16",
          "blockNumber": "0x207704f",
          "blockTimestamp": "0x69223f7e",
          "transactionHash": "0x36712c6fc326948739ffd75659e183e96dbb8586b026a8ba7d56fc8bc899af24",
          "transactionIndex": "0x46",
          "logIndex": "0xb8",
          "removed": false
        }
      ],
      "logsBloom": "0x00000000000000010000000000001000000000000000000000000000000000000100000100004000000000000000000000000000800000000008000210200800000000000010000000004008000000000000000000100800004000408000000000000000020000000000000000000800000000000000000000000010000000000000000005000000000000000000000000000000400000000400000000000001020004000000000000000000100100000000000000000000000000000000000000000002001001000000000000000000080000000000000000000000000020000010000080000000000000000800000004000000002000000000000000000000",
      "type": "0x2",
      "transactionHash": "0x36712c6fc326948739ffd75659e183e96dbb8586b026a8ba7d56fc8bc899af24",
      "transactionIndex": "0x46",
      "blockHash": "0xcc33fde52756c0f9e3a131b214af81451b7d3edcbe91a000017b0f9a5b210f16",
      "blockNumber": "0x207704f",
      "gasUsed": "0x3fbbd",
      "effectiveGasPrice": "0x12529b",
      "blobGasUsed": "0x19710",
      "from": "0x8ff8e6ee2a0d3427160fba3240e87797036a2bc0",
      "to": "0x4b2c77d209d3405f41a037ec6c77f7f5b8e2ca80",
      "contractAddress": null,
      "daFootprintGasScalar": "0x138",
      "l1BaseFeeScalar": "0x44d",
      "l1BlobBaseFee": "0x1",
      "l1BlobBaseFeeScalar": "0xa118b",
      "l1Fee": "0x129",
      "l1GasPrice": "0xd",
      "l1GasUsed": "0x14ea"
    }
  ],
  "libraries": [],
  "pending": [],
  "returns": {},
  "timestamp": 1763852158214,
  "chain": 84532,
  "commit": "c878f44"
}