{
  "transactions": [
    {
      "hash": "0xfbb08009d0d45215cdad78de66b84a0881dfb9b6fdc12efc62d201987a72ad3d",
      "transactionType": "CALL",
      "contractName": null,
      "contractAddress": "0x0a215d8ba66387dca84b284d18c3b4ec3de6e54a",
      "function": "approve(address,uint256)",
      "arguments": [
        "0x000000000022D473030F116dDEE9F6B43aC78BA3",
        "115792089237316195423570985008687907853269984665640564039457584007913129639935"
      ],
      "transaction": {
        "from": "0x8ff8e6ee2a0d3427160fba3240e87797036a2bc0",
        "to": "0x0a215d8ba66387dca84b284d18c3b4ec3de6e54a",
        "gas": "0xfb04",
        "value": "0x0",
        "input": "0x095ea7b3000000000000000000000000000000000022d473030f116ddee9f6b43ac78ba3ffffffffffffffffffffffffffffffffffffffffffffffffffffffffffffffff",
        "nonce": "0x1b",
        "chainId": "0x14a34"
      },
      "additionalContracts": [],
      "isFixedGasLimit": false
    },
    {
      "hash": "0x6b2e4457a34027ae02ff28852533b25cda07f67ca0ec1b9fb3473c642f4b25ef",
      "transactionType": "CALL",
      "contractName": null,
      "contractAddress": "0x000000000022d473030f116ddee9f6b43ac78ba3",
      "function": "approve(address,address,uint160,uint48)",
      "arguments": [
        "0x0a215D8ba66387DCA84B284D18c3B4ec3de6E54a",
        "0x4B2C77d209D3405F41a037Ec6c77F7F5b8e2ca80",
        "1461501637330902918203684832716283019655932542975",
        "281474976710655"
      ],
      "transaction": {
        "from": "0x8ff8e6ee2a0d3427160fba3240e87797036a2bc0",
        "to": "0x000000000022d473030f116ddee9f6b43ac78ba3",
        "gas": "0x1112d",
        "value": "0x0",
        "input": "0x87517c450000000000000000000000000a215d8ba66387dca84b284d18c3b4ec3de6e54a0000000000000000000000004b2c77d209d3405f41a037ec6c77f7f5b8e2ca80000000000000000000000000ffffffffffffffffffffffffffffffffffffffff0000000000000000000000000000000000000000000000000000ffffffffffff",
        "nonce": "0x1c",
        "chainId": "0x14a34"
      },
      "additionalContracts": [],
      "isFixedGasLimit": false
    },
    {
      "hash": "0x2cfc9f73d41f3704d73a5262375550d3d4b6dc776bbcfa8bce6103aa3d8cb7ae",
      "transactionType": "CALL",
      "contractName": null,
      "contractAddress": "0xba50cd2a20f6da35d788639e581bca8d0b5d4d5f",
      "function": "approve(address,uint256)",
      "arguments": [
        "0x000000000022D473030F116dDEE9F6B43aC78BA3",
        "115792089237316195423570985008687907853269984665640564039457584007913129639935"
      ],
      "transaction": {
        "from": "0x8ff8e6ee2a0d3427160fba3240e87797036a2bc0",
        "to": "0xba50cd2a20f6da35d788639e581bca8d0b5d4d5f",
        "gas": "0xfb04",
        "value": "0x0",
        "input": "0x095ea7b3000000000000000000000000000000000022d473030f116ddee9f6b43ac78ba3ffffffffffffffffffffffffffffffffffffffffffffffffffffffffffffffff",
        "nonce": "0x1d",
        "chainId": "0x14a34"
      },
      "additionalContracts": [],
      "isFixedGasLimit": false
    },
    {
      "hash": "0xda95efa9497d36af39aabd05353002f612953b7db7a15ab78d8a0625845b1580",
      "transactionType": "CALL",
      "contractName": null,
      "contractAddress": "0x000000000022d473030f116ddee9f6b43ac78ba3",
      "function": "approve(address,address,uint160,uint48)",
      "arguments": [
        "0xba50Cd2A20f6DA35D788639E581bca8d0B5d4D5f",
        "0x4B2C77d209D3405F41a037Ec6c77F7F5b8e2ca80",
        "1461501637330902918203684832716283019655932542975",
        "281474976710655"
      ],
      "transaction": {
        "from": "0x8ff8e6ee2a0d3427160fba3240e87797036a2bc0",
        "to": "0x000000000022d473030f116ddee9f6b43ac78ba3",
        "gas": "0x1112d",
        "value": "0x0",
        "input": "0x87517c45000000000000000000000000ba50cd2a20f6da35d788639e581bca8d0b5d4d5f0000000000000000000000004b2c77d209d3405f41a037ec6c77f7f5b8e2ca80000000000000000000000000ffffffffffffffffffffffffffffffffffffffff0000000000000000000000000000000000000000000000000000ffffffffffff",
        "nonce": "0x1e",
        "chainId": "0x14a34"
      },
      "additionalContracts": [],
      "isFixedGasLimit": false
    },
    {
      "hash": "0x1469f6b826ebbbae9665090784bffeaa13ea9d6acd3dde632c46a5e3986ebcbb",
      "transactionType": "CALL",
      "contractName": null,
      "contractAddress": "0x4b2c77d209d3405f41a037ec6c77f7f5b8e2ca80",
      "function": "multicall(bytes[])",
      "arguments": [
        "[0xf70204050000000000000000000000000a215d8ba66387dca84b284d18c3b4ec3de6e54a000000000000000000000000ba50cd2a20f6da35d788639e581bca8d0b5d4d5f0000000000000000000000000000000000000000000000000000000000000bb8000000000000000000000000000000000000000000000000000000000000003c0000000000000000000000001d16eade6be2d9037f458d53d0b0fd216fc740c4000000000000000000000000000000000000000100000000000000000000000000000000000000000000000000000000000000000000000000000000000000e00000000000000000000000000000000000000000000000000000000000000000, 0xdd46508f00000000000000000000000000000000000000000000000000000000000000400000000000000000000000000000000000000000000000000000000069221dfc0000000000000000000000000000000000000000000000000000000000000400000000000000000000000000000000000000000000000000000000000000004000000000000000000000000000000000000000000000000000000000000000800000000000000000000000000000000000000000000000000000000000000004020d14140000000000000000000000000000000000000000000000000000000000000000000000000000000000000000000000000000000000000000000000040000000000000000000000000000000000000000000000000000000000000080000000000000000000000000000000000000000000000000000000000000024000000000000000000000000000000000000000000000000000000000000002a0000000000000000000000000000000000000000000000000000000000000030000000000000000000000000000000000000000000000000000000000000001a00000000000000000000000000a215d8ba66387dca84b284d18c3b4ec3de6e54a000000000000000000000000ba50cd2a20f6da35d788639e581bca8d0b5d4d5f0000000000000000000000000000000000000000000000000000000000000bb8000000000000000000000000000000000000000000000000000000000000003c0000000000000000000000001d16eade6be2d9037f458d53d0b0fd216fc740c4ffffffffffffffffffffffffffffffffffffffffffffffffffffffffffff15a0000000000000000000000000000000000000000000000000000000000000ea600000000000000000000000000000000000000000000000000000000139a40cfe000000000000000000000000000000000000000000000000000000012d00e280000000000000000000000000000000000000000000000000000000012d00e2800000000000000000000000008ff8e6ee2a0d3427160fba3240e87797036a2bc00000000000000000000000000000000000000000000000000000000000000180000000000000000000000000000000000000000000000000000000000000000000000000000000000000000000000000000000000000000000000000000000400000000000000000000000000a215d8ba66387dca84b284d18c3b4ec3de6e54a000000000000000000000000ba50cd2a20f6da35d788639e581bca8d0b5d4d5f00000000000000000000000000000000000000000000000000000000000000400000000000000000000000000a215d8ba66387dca84b284d18c3b4ec3de6e54a0000000000000000000000008ff8e6ee2a0d3427160fba3240e87797036a2bc00000000000000000000000000000000000000000000000000000000000000040000000000000000000000000ba50cd2a20f6da35d788639e581bca8d0b5d4d5f0000000000000000000000008ff8e6ee2a0d3427160fba3240e87797036a2bc0]"
      ],
      "transaction": {
        "from": "0x8ff8e6ee2a0d3427160fba3240e87797036a2bc0",
        "to": "0x4b2c77d209d3405f41a037ec6c77f7f5b8e2ca80",
        "gas": "0xb1c1c",
        "value": "0x0",
        "input": "0xac9650d800000000000000000000000000000000000000000000000000000000000000200000000000000000000000000000000000000000000000000000000000000002000000000000000000000000000000000000000000000000000000000000004000000000000000000000000000000000000000000000000000000000000001800000000000000000000000000000000000000000000000000000000000000104f70204050000000000000000000000000a215d8ba66387dca84b284d18c3b4ec3de6e54a000000000000000000000000ba50cd2a20f6da35d788639e581bca8d0b5d4d5f0000000000000000000000000000000000000000000000000000000000000bb8000000000000000000000000000000000000000000000000000000000000003c0000000000000000000000001d16eade6be2d9037f458d53d0b0fd216fc740c4000000000000000000000000000000000000000100000000000000000000000000000000000000000000000000000000000000000000000000000000000000e00000000000000000000000000000000000000000000000000000000000000000000000000000000000000000000000000000000000000000000000000000000000000000000000000000000000000000000000000000000000000464dd46508f00000000000000000000000000000000000000000000000000000000000000400000000000000000000000000000000000000000000000000000000069221dfc0000000000000000000000000000000000000000000000000000000000000400000000000000000000000000000000000000000000000000000000000000004000000000000000000000000000000000000000000000000000000000000000800000000000000000000000000000000000000000000000000000000000000004020d14140000000000000000000000000000000000000000000000000000000000000000000000000000000000000000000000000000000000000000000000040000000000000000000000000000000000000000000000000000000000000080000000000000000000000000000000000000000000000000000000000000024000000000000000000000000000000000000000000000000000000000000002a0000000000000000000000000000000000000000000000000000000000000030000000000000000000000000000000000000000000000000000000000000001a00000000000000000000000000a215d8ba66387dca84b284d18c3b4ec3de6e54a000000000000000000000000ba50cd2a20f6da35d788639e581bca8d0b5d4d5f0000000000000000000000000000000000000000000000000000000000000bb8000000000000000000000000000000000000000000000000000000000000003c0000000000000000000000001d16eade6be2d9037f458d53d0b0fd216fc740c4ffffffffffffffffffffffffffffffffffffffffffffffffffffffffffff15a0000000000000000000000000000000000000000000000000000000000000ea600000000000000000000000000000000000000000000000000000000139a40cfe000000000000000000000000000000000000000000000000000000012d00e280000000000000000000000000000000000000000000000000000000012d00e2800000000000000000000000008ff8e6ee2a0d3427160fba3240e87797036a2bc00000000000000000000000000000000000000000000000000000000000000180000000000000000000000000000000000000000000000000000000000000000000000000000000000000000000000000000000000000000000000000000000400000000000000000000000000a215d8ba66387dca84b284d18c3b4ec3de6e54a000000000000000000000000ba50cd2a20f6da35d788639e581bca8d0b5d4d5f00000000000000000000000000000000000000000000000000000000000000400000000000000000000000000a215d8ba66387dca84b284d18c3b4ec3de6e54a0000000000000000000000008ff8e6ee2a0d3427160fba3240e87797036a2bc00000000000000000000000000000000000000000000000000000000000000040000000000000000000000000ba50cd2a20f6da35d788639e581bca8d0b5d4d5f0000000000000000000000008ff8e6ee2a0d3427160fba3240e87797036a2bc000000000000000000000000000000000000000000000000000000000",
        "nonce": "0x1f",
        "chainId": "0x14a34"
      },
      "additionalContracts": [],
      "isFixedGasLimit": false
    }
  ],
  "receipts": [
    {
      "status": "0x1",
      "cumulativeGasUsed": "0x21b538",
      "logs": [
        {
          "address": "0x0a215d8ba66387dca84b284d18c3b4ec3de6e54a",
          "topics": [
            "0x8c5be1e5ebec7d5bd14f71427d1e84f3dd0314c0f7b2291e5b200ac8c7c3b925",
            "0x0000000000000000000000008ff8e6ee2a0d3427160fba3240e87797036a2bc0",
            "0x000000000000000000000000000000000022d473030f116ddee9f6b43ac78ba3"
          ],
          "data": "0xffffffffffffffffffffffffffffffffffffffffffffffffffffffffffffffff",
          "blockHash": "0x9e593ba26b9de82655c16e863a8882e2a91bad73284d0956529b2d1de110fd11",
          "blockNumber": "0x2075888",
          "blockTimestamp": "0x69220ff0",
          "transactionHash": "0xfbb08009d0d45215cdad78de66b84a0881dfb9b6fdc12efc62d201987a72ad3d",
          "transactionIndex": "0xa",
          "logIndex": "0xa",
          "removed": false
        }
      ],
      "logsBloom": "0x00000000000000000000000000000000000000000000000000000000000000000000000000000000000000000000000000000000800000000000000000200000000000000000000000004000000000000000000000000800004000000000000000000000000000000000000000000000000000000000000000000000000000000000000000000000000000000000000000000000000000000400000000000000020000000000000000000000100000000000000000000000000000000000000000000000000000000000000000000000080000000000000000000000000000000010000080000000000000000000000004000000000000000000000000000000",
      "type": "0x2",
      "transactionHash": "0xfbb08009d0d45215cdad78de66b84a0881dfb9b6fdc12efc62d201987a72ad3d",
      "transactionIndex": "0xa",
      "blockHash": "0x9e593ba26b9de82655c16e863a8882e2a91bad73284d0956529b2d1de110fd11",
      "blockNumber": "0x2075888",
      "gasUsed": "0xb5bc",
      "effectiveGasPrice": "0x125b5d",
      "blobGasUsed": "0x79e0",
      "from": "0x8ff8e6ee2a0d3427160fba3240e87797036a2bc0",
      "to": "0x0a215d8ba66387dca84b284d18c3b4ec3de6e54a",
      "contractAddress": null,
      "daFootprintGasScalar": "0x138",
      "l1BaseFeeScalar": "0x44d",
      "l1BlobBaseFee": "0x1",
      "l1BlobBaseFeeScalar": "0xa118b",
      "l1Fee": "0x53",
      "l1GasPrice": "0xa",
      "l1GasUsed": "0x640"
    },
    {
      "status": "0x1",
      "cumulativeGasUsed": "0x227002",
      "logs": [
        {
          "address": "0x000000000022d473030f116ddee9f6b43ac78ba3",
          "topics": [
            "0xda9fa7c1b00402c17d0161b249b1ab8bbec047c5a52207b9c112deffd817036b",
            "0x0000000000000000000000008ff8e6ee2a0d3427160fba3240e87797036a2bc0",
            "0x0000000000000000000000000a215d8ba66387dca84b284d18c3b4ec3de6e54a",
            "0x0000000000000000000000004b2c77d209d3405f41a037ec6c77f7f5b8e2ca80"
          ],
          "data": "0x000000000000000000000000ffffffffffffffffffffffffffffffffffffffff0000000000000000000000000000000000000000000000000000ffffffffffff",
          "blockHash": "0x9e593ba26b9de82655c16e863a8882e2a91bad73284d0956529b2d1de110fd11",
          "blockNumber": "0x2075888",
          "blockTimestamp": "0x69220ff0",
          "transactionHash": "0x6b2e4457a34027ae02ff28852533b25cda07f67ca0ec1b9fb3473c642f4b25ef",
          "transactionIndex": "0xb",
          "logIndex": "0xb",
          "removed": false
        }
      ],
      "logsBloom": "0x00010000000000010000000000000000000000000000000000000000000000000000000000000000000000000000000000000000000000000008000010080000000000000000000000000000000000000000000000000000004000000000000000000000000040000000000000000000000000000000000000000000000000000020000000000000000000000000000000000000000000000000000000040000000000000000000000000000000000000000000000000000000000080000000000000000000000000000000000000000080000000000000040000000000000000000000000000000000000000000000004000000000000000000000000000402",
      "type": "0x2",
      "transactionHash": "0x6b2e4457a34027ae02ff28852533b25cda07f67ca0ec1b9fb3473c642f4b25ef",
      "transactionIndex": "0xb",
      "blockHash": "0x9e593ba26b9de82655c16e863a8882e2a91bad73284d0956529b2d1de110fd11",
      "blockNumber": "0x2075888",
      "gasUsed": "0xbaca",
      "effectiveGasPrice": "0x125b5d",
      "blobGasUsed": "0x8880",
      "from": "0x8ff8e6ee2a0d3427160fba3240e87797036a2bc0",
      "to": "0x000000000022d473030f116ddee9f6b43ac78ba3",
      "contractAddress": null,
      "daFootprintGasScalar": "0x138",
      "l1BaseFeeScalar": "0x44d",
      "l1BlobBaseFee": "0x1",
      "l1BlobBaseFeeScalar": "0xa118b",
      "l1Fee": "0x5d",
      "l1GasPrice": "0xa",
      "l1GasUsed": "0x702"
    },
    {
      "status": "0x1",
      "cumulativeGasUsed": "0x2325be",
      "logs": [
        {
          "address": "0xba50cd2a20f6da35d788639e581bca8d0b5d4d5f",
          "topics": [
            "0x8c5be1e5ebec7d5bd14f71427d1e84f3dd0314c0f7b2291e5b200ac8c7c3b925",
            "0x0000000000000000000000008ff8e6ee2a0d3427160fba3240e87797036a2bc0",
            "0x000000000000000000000000000000000022d473030f116ddee9f6b43ac78ba3"
          ],
          "data": "0xffffffffffffffffffffffffffffffffffffffffffffffffffffffffffffffff",
          "blockHash": "0x9e593ba26b9de82655c16e863a8882e2a91bad73284d0956529b2d1de110fd11",
          "blockNumber": "0x2075888",
          "blockTimestamp": "0x69220ff0",
          "transactionHash": "0x2cfc9f73d41f3704d73a5262375550d3d4b6dc776bbcfa8bce6103aa3d8cb7ae",
          "transactionIndex": "0xc",
          "logIndex": "0xc",
          "removed": false
        }
      ],
      "logsBloom": "0x00000000000000000000000000001000000000000000000000000000000000000000000000000000000000000000000000000000800000000000000200200000000000000000000000004000000000000000000000000800004000000000000000000000000000000000000000000000000000000000000000000000000000000000000000000000000000000000000000000000000000000000000000000000020000000000000000000000000000000000000000000000000000000000000000000000000000000000000000000000080000000000000000000000000000000010000000000000000000000000000004000000002000000000000000000000",
      "type": "0x2",
      "transactionHash": "0x2cfc9f73d41f3704d73a5262375550d3d4b6dc776bbcfa8bce6103aa3d8cb7ae",
      "transactionIndex": "0xc",
      "blockHash": "0x9e593ba26b9de82655c16e863a8882e2a91bad73284d0956529b2d1de110fd11",
      "blockNumber": "0x2075888",
      "gasUsed": "0xb5bc",
      "effectiveGasPrice": "0x125b5d",
      "blobGasUsed": "0x79e0",
      "from": "0x8ff8e6ee2a0d3427160fba3240e87797036a2bc0",
      "to": "0xba50cd2a20f6da35d788639e581bca8d0b5d4d5f",
      "contractAddress": null,
      "daFootprintGasScalar": "0x138",
      "l1BaseFeeScalar": "0x44d",
      "l1BlobBaseFee": "0x1",
      "l1BlobBaseFeeScalar": "0xa118b",
      "l1Fee": "0x53",
      "l1GasPrice": "0xa",
      "l1GasUsed": "0x640"
    },
    {
      "status": "0x1",
      "cumulativeGasUsed": "0x23e088",
      "logs": [
        {
          "address": "0x000000000022d473030f116ddee9f6b43ac78ba3",
          "topics": [
            "0xda9fa7c1b00402c17d0161b249b1ab8bbec047c5a52207b9c112deffd817036b",
            "0x0000000000000000000000008ff8e6ee2a0d3427160fba3240e87797036a2bc0",
            "0x000000000000000000000000ba50cd2a20f6da35d788639e581bca8d0b5d4d5f",
            "0x0000000000000000000000004b2c77d209d3405f41a037ec6c77f7f5b8e2ca80"
          ],
          "data": "0x000000000000000000000000ffffffffffffffffffffffffffffffffffffffff0000000000000000000000000000000000000000000000000000ffffffffffff",
          "blockHash": "0x9e593ba26b9de82655c16e863a8882e2a91bad73284d0956529b2d1de110fd11",
          "blockNumber": "0x2075888",
          "blockTimestamp": "0x69220ff0",
          "transactionHash": "0xda95efa9497d36af39aabd05353002f612953b7db7a15ab78d8a0625845b1580",
          "transactionIndex": "0xd",
          "logIndex": "0xd",
          "removed": false
        }
      ],
      "logsBloom": "0x00010000000000010000000000000000000000000000800000000000000000000000000000000000000000000000000000000000000000000008000010080000000000000000000000000000000800000000000000000000004000000000000000000000000000000000000000000000000000000000000000000000000000000020000000000000000000000000000000000000000000000000000000000000000000000000000000000000000000000000000000000000000000080000000000000000000000000004000000000000080000000000000040000000000000000000000000000000000000000000000004000000000000000000000000000400",
      "type": "0x2",
      "transactionHash": "0xda95efa9497d36af39aabd05353002f612953b7db7a15ab78d8a0625845b1580",
      "transactionIndex": "0xd",
      "blockHash": "0x9e593ba26b9de82655c16e863a8882e2a91bad73284d0956529b2d1de110fd11",
      "blockNumber": "0x2075888",
      "gasUsed": "0xbaca",
      "effectiveGasPrice": "0x125b5d",
      "blobGasUsed": "0x8880",
      "from": "0x8ff8e6ee2a0d3427160fba3240e87797036a2bc0",
      "to": "0x000000000022d473030f116ddee9f6b43ac78ba3",
      "contractAddress": null,
      "daFootprintGasScalar": "0x138",
      "l1BaseFeeScalar": "0x44d",
      "l1BlobBaseFee": "0x1",
      "l1BlobBaseFeeScalar": "0xa118b",
      "l1Fee": "0x5d",
      "l1GasPrice": "0xa",
      "l1GasUsed": "0x702"
    },
    {
      "status": "0x1",
      "cumulativeGasUsed": "0x2b7939",
      "logs": [
        {
          "address": "0x05e73354cfdd6745c338b50bcfdfa3aa6fa03408",
          "topics": [
            "0xdd466e674ea557f56295e2d0218a125ea4b4f0f6f3307b95f85e6110838d6438",
            "0x651eb567f8f046f1a018908e5a91d5cc28f078b3a9b801cf645d7c1aa292f0d4",
            "0x0000000000000000000000000a215d8ba66387dca84b284d18c3b4ec3de6e54a",
            "0x000000000000000000000000ba50cd2a20f6da35d788639e581bca8d0b5d4d5f"
          ],
          "data": "0x0000000000000000000000000000000000000000000000000000000000000bb8000000000000000000000000000000000000000000000000000000000000003c0000000000000000000000001d16eade6be2d9037f458d53d0b0fd216fc740c400000000000000000000000000000000000000010000000000000000000000000000000000000000000000000000000000000000000000000000000000000000",
          "blockHash": "0x9e593ba26b9de82655c16e863a8882e2a91bad73284d0956529b2d1de110fd11",
          "blockNumber": "0x2075888",
          "blockTimestamp": "0x69220ff0",
          "transactionHash": "0x1469f6b826ebbbae9665090784bffeaa13ea9d6acd3dde632c46a5e3986ebcbb",
          "transactionIndex": "0xe",
          "logIndex": "0xe",
          "removed": false
        },
        {
          "address": "0x4b2c77d209d3405f41a037ec6c77f7f5b8e2ca80",
          "topics": [
            "0xddf252ad1be2c89b69c2b068fc378daa952ba7f163c4a11628f55a4df523b3ef",
            "0x0000000000000000000000000000000000000000000000000000000000000000",
            "0x0000000000000000000000008ff8e6ee2a0d3427160fba3240e87797036a2bc0",
            "0x0000000000000000000000000000000000000000000000000000000000001ff7"
          ],
          "data": "0x",
          "blockHash": "0x9e593ba26b9de82655c16e863a8882e2a91bad73284d0956529b2d1de110fd11",
          "blockNumber": "0x2075888",
          "blockTimestamp": "0x69220ff0",
          "transactionHash": "0x1469f6b826ebbbae9665090784bffeaa13ea9d6acd3dde632c46a5e3986ebcbb",
          "transactionIndex": "0xe",
          "logIndex": "0xf",
          "removed": false
        },
        {
          "address": "0x05e73354cfdd6745c338b50bcfdfa3aa6fa03408",
          "topics": [
            "0xf208f4912782fd25c7f114ca3723a2d5dd6f3bcc3ac8db5af63baa85f711d5ec",
            "0x651eb567f8f046f1a018908e5a91d5cc28f078b3a9b801cf645d7c1aa292f0d4",
            "0x0000000000000000000000004b2c77d209d3405f41a037ec6c77f7f5b8e2ca80"
          ],
          "data": "0xffffffffffffffffffffffffffffffffffffffffffffffffffffffffffff15a0000000000000000000000000000000000000000000000000000000000000ea600000000000000000000000000000000000000000000000000000000139a40cfe0000000000000000000000000000000000000000000000000000000000001ff7",
          "blockHash": "0x9e593ba26b9de82655c16e863a8882e2a91bad73284d0956529b2d1de110fd11",
          "blockNumber": "0x2075888",
          "blockTimestamp": "0x69220ff0",
          "transactionHash": "0x1469f6b826ebbbae9665090784bffeaa13ea9d6acd3dde632c46a5e3986ebcbb",
          "transactionIndex": "0xe",
          "logIndex": "0x10",
          "removed": false
        },
        {
          "address": "0x0a215d8ba66387dca84b284d18c3b4ec3de6e54a",
          "topics": [
            "0xddf252ad1be2c89b69c2b068fc378daa952ba7f163c4a11628f55a4df523b3ef",
            "0x0000000000000000000000008ff8e6ee2a0d3427160fba3240e87797036a2bc0",
            "0x00000000000000000000000005e73354cfdd6745c338b50bcfdfa3aa6fa03408"
          ],
          "data": "0x000000000000000000000000000000000000000000000000000000012a05f200",
          "blockHash": "0x9e593ba26b9de82655c16e863a8882e2a91bad73284d0956529b2d1de110fd11",
          "blockNumber": "0x2075888",
          "blockTimestamp": "0x69220ff0",
          "transactionHash": "0x1469f6b826ebbbae9665090784bffeaa13ea9d6acd3dde632c46a5e3986ebcbb",
          "transactionIndex": "0xe",
          "logIndex": "0x11",
          "removed": false
        },
        {
          "address": "0x0a215d8ba66387dca84b284d18c3b4ec3de6e54a",
          "topics": [
            "0x8c5be1e5ebec7d5bd14f71427d1e84f3dd0314c0f7b2291e5b200ac8c7c3b925",
            "0x0000000000000000000000008ff8e6ee2a0d3427160fba3240e87797036a2bc0",
            "0x000000000000000000000000000000000022d473030f116ddee9f6b43ac78ba3"
          ],
          "data": "0xfffffffffffffffffffffffffffffffffffffffffffffffffffffffed5fa0dff",
          "blockHash": "0x9e593ba26b9de82655c16e863a8882e2a91bad73284d0956529b2d1de110fd11",
          "blockNumber": "0x2075888",
          "blockTimestamp": "0x69220ff0",
          "transactionHash": "0x1469f6b826ebbbae9665090784bffeaa13ea9d6acd3dde632c46a5e3986ebcbb",
          "transactionIndex": "0xe",
          "logIndex": "0x12",
          "removed": false
        },
        {
          "address": "0xba50cd2a20f6da35d788639e581bca8d0b5d4d5f",
          "topics": [
            "0xddf252ad1be2c89b69c2b068fc378daa952ba7f163c4a11628f55a4df523b3ef",
            "0x0000000000000000000000008ff8e6ee2a0d3427160fba3240e87797036a2bc0",
            "0x00000000000000000000000005e73354cfdd6745c338b50bcfdfa3aa6fa03408"
          ],
          "data": "0x000000000000000000000000000000000000000000000000000000012a05f200",
          "blockHash": "0x9e593ba26b9de82655c16e863a8882e2a91bad73284d0956529b2d1de110fd11",
          "blockNumber": "0x2075888",
          "blockTimestamp": "0x69220ff0",
          "transactionHash": "0x1469f6b826ebbbae9665090784bffeaa13ea9d6acd3dde632c46a5e3986ebcbb",
          "transactionIndex": "0xe",
          "logIndex": "0x13",
          "removed": false
        },
        {
          "address": "0xba50cd2a20f6da35d788639e581bca8d0b5d4d5f",
          "topics": [
            "0x8c5be1e5ebec7d5bd14f71427d1e84f3dd0314c0f7b2291e5b200ac8c7c3b925",
            "0x0000000000000000000000008ff8e6ee2a0d3427160fba3240e87797036a2bc0",
            "0x000000000000000000000000000000000022d473030f116ddee9f6b43ac78ba3"
          ],
          "data": "0xfffffffffffffffffffffffffffffffffffffffffffffffffffffffed5fa0dff",
          "blockHash": "0x9e593ba26b9de82655c16e863a8882e2a91bad73284d0956529b2d1de110fd11",
          "blockNumber": "0x2075888",
          "blockTimestamp": "0x69220ff0",
          "transactionHash": "0x1469f6b826ebbbae9665090784bffeaa13ea9d6acd3dde632c46a5e3986ebcbb",
          "transactionIndex": "0xe",
          "logIndex": "0x14",
          "removed": false
        }
      ],
      "logsBloom": "0x00000000000000010000000000001000000000000000800000000000000000000100000100004000000000000000080000000000800000000008000210200800000000000010000000004008000800000000000000100800004000408000000000000000020040000000000000004800000000000000000000000010000000000000000005000008100000000000000000000001000000000400000000240000020004000000000000000000100100000000000000000000000000000000000000000002001000000004000000000000080000000000000000000000000020000010000080000000000000000800000004000000002000000000000000000002",
      "type": "0x2",
      "transactionHash": "0x1469f6b826ebbbae9665090784bffeaa13ea9d6acd3dde632c46a5e3986ebcbb",
      "transactionIndex": "0xe",
      "blockHash": "0x9e593ba26b9de82655c16e863a8882e2a91bad73284d0956529b2d1de110fd11",
      "blockNumber": "0x2075888",
      "gasUsed": "0x798b1",
      "effectiveGasPrice": "0x125b5d",
      "blobGasUsed": "0x19710",
      "from": "0x8ff8e6ee2a0d3427160fba3240e87797036a2bc0",
      "to": "0x4b2c77d209d3405f41a037ec6c77f7f5b8e2ca80",
      "contractAddress": null,
      "daFootprintGasScalar": "0x138",
      "l1BaseFeeScalar": "0x44d",
      "l1BlobBaseFee": "0x1",
      "l1BlobBaseFeeScalar": "0xa118b",
      "l1Fee": "0x117",
      "l1GasPrice": "0xa",
      "l1GasUsed": "0x14ea"
    }
  ],
  "libraries": [],
  "pending": [],
  "returns": {},
  "timestamp": 1763839984112,
  "chain": 84532,
  "commit": "8f5d79e"
}