{
  "transactions": [
    {
      "hash": "0x39951b055d35f9d7361d7c1cb218017f33b4009a5bf18eea02d8219f6bae3fc4",
      "transactionType": "CALL",
      "contractName": null,
      "contractAddress": "0xba50Cd2A20f6DA35D788639E581bca8d0B5d4D5f",
      "function": "approve(address,uint256)",
      "arguments": [
        "0x71cD4Ea054F9Cb3D3BF6251A00673303411A7DD9",
        "115792089237316195423570985008687907853269984665640564039457584007913129639935"
      ],
      "transaction": {
        "type": "0x02",
        "from": "0x8ff8e6ee2a0d3427160fba3240e87797036a2bc0",
        "to": "0xba50cd2a20f6da35d788639e581bca8d0b5d4d5f",
        "gas": "0x9f04",
        "value": "0x0",
        "data": "0x095ea7b300000000000000000000000071cd4ea054f9cb3d3bf6251a00673303411a7dd9ffffffffffffffffffffffffffffffffffffffffffffffffffffffffffffffff",
        "nonce": "0x37",
        "accessList": []
      },
      "additionalContracts": [],
      "isFixedGasLimit": false
    },
    {
      "hash": "0x597228aad29125262f581e99dd21dbb7cfcfa6b64652307e9a7d7fb94456e3f0",
      "transactionType": "CALL",
      "contractName": null,
      "contractAddress": "0x0a215D8ba66387DCA84B284D18c3B4ec3de6E54a",
      "function": "approve(address,uint256)",
      "arguments": [
        "0x71cD4Ea054F9Cb3D3BF6251A00673303411A7DD9",
        "115792089237316195423570985008687907853269984665640564039457584007913129639935"
      ],
      "transaction": {
        "type": "0x02",
        "from": "0x8ff8e6ee2a0d3427160fba3240e87797036a2bc0",
        "to": "0x0a215d8ba66387dca84b284d18c3b4ec3de6e54a",
        "gas": "0x8fe8",
        "value": "0x0",
        "data": "0x095ea7b300000000000000000000000071cd4ea054f9cb3d3bf6251a00673303411a7dd9ffffffffffffffffffffffffffffffffffffffffffffffffffffffffffffffff",
        "nonce": "0x38",
        "accessList": []
      },
      "additionalContracts": [],
      "isFixedGasLimit": false
    },
    {
      "hash": "0x19290bb1ee165a71e9ed121a9a5042536db18c9b7d3dce458f6d71c567546a7e",
      "transactionType": "CALL",
      "contractName": null,
      "contractAddress": "0x71cD4Ea054F9Cb3D3BF6251A00673303411A7DD9",
      "function": null,
      "arguments": null,
      "transaction": {
        "type": "0x02",
        "from": "0x8ff8e6ee2a0d3427160fba3240e87797036a2bc0",
        "to": "0x71cd4ea054f9cb3d3bf6251a00673303411a7dd9",
        "gas": "0x755c3",
        "value": "0x0",
        "data": "0xb1a0d57100000000000000000000000000000000000000000000000000000000000f4240000000000000000000000000000000000000000000000000000000000000000000000000000000000000000000000000000000000000000000000000000000000000000000000000000000000a215d8ba66387dca84b284d18c3b4ec3de6e54a000000000000000000000000ba50cd2a20f6da35d788639e581bca8d0b5d4d5f0000000000000000000000000000000000000000000000000000000000000bb8000000000000000000000000000000000000000000000000000000000000003c000000000000000000000000d1b0f8f27aad2292765e2ca645e7ef1a692980c400000000000000000000000000000000000000000000000000000000000001600000000000000000000000008ff8e6ee2a0d3427160fba3240e87797036a2bc000000000000000000000000000000000000000000000000000000000692267b40000000000000000000000000000000000000000000000000000000000000100000000000000000000000000000000000000000000000000000000000000004000000000000000000000000000000000000000000000000000000000000000a0000000000000000000000000000000000000000000000000000000000000002a30783939324138383437433238463963443932353144353338323234394134643335353233463531304100000000000000000000000000000000000000000000000000000000000000000000000000000000000000000000000000000000002a30783866663845366565324130643334323731363046426133323430453837373937303336613242433000000000000000000000000000000000000000000000",
        "nonce": "0x39",
        "accessList": []
      },
      "additionalContracts": [],
      "isFixedGasLimit": false
    }
  ],
  "receipts": [
    {
      "transactionHash": "0x39951b055d35f9d7361d7c1cb218017f33b4009a5bf18eea02d8219f6bae3fc4",
      "transactionIndex": "0x6",
      "blockHash": "0xb2043b3056863f889d8d82e77fcf44b4c6842c1fd707228941ce2ae028da003f",
      "blockNumber": "0x20783db",
      "from": "0x8ff8E6ee2A0d3427160FBa3240E87797036a2BC0",
      "to": "0xba50Cd2A20f6DA35D788639E581bca8d0B5d4D5f",
      "cumulativeGasUsed": "0x1ab040",
      "gasUsed": "0x7320",
      "contractAddress": null,
      "logs": [
        {
          "address": "0xba50Cd2A20f6DA35D788639E581bca8d0B5d4D5f",
          "topics": [
            "0x8c5be1e5ebec7d5bd14f71427d1e84f3dd0314c0f7b2291e5b200ac8c7c3b925",
            "0x0000000000000000000000008ff8e6ee2a0d3427160fba3240e87797036a2bc0",
            "0x00000000000000000000000071cd4ea054f9cb3d3bf6251a00673303411a7dd9"
          ],
          "data": "0xffffffffffffffffffffffffffffffffffffffffffffffffffffffffffffffff",
          "blockHash": "0xb2043b3056863f889d8d82e77fcf44b4c6842c1fd707228941ce2ae028da003f",
          "blockNumber": "0x20783db",
          "transactionHash": "0x39951b055d35f9d7361d7c1cb218017f33b4009a5bf18eea02d8219f6bae3fc4",
          "transactionIndex": "0x6",
          "logIndex": "0x30",
          "removed": false
        }
      ],
      "status": "0x1",
      "logsBloom": "0x00000000000000000000000000001000000000000000000000000000000000000000000000000000000000000000000000000000000000000000000200200000000000000000000000000000000000000000000000000000004000000000000000000000000000000000000000000000000000000000000000000000000000000000000000000000000000000000000000000000000000000000000000000000020000000000000000000000000000000000000000002000004000000000000000000000000000000000020000000000080000000000000000000000000000000010000000000000000000000000000004000000002000000000000000000000",
      "type": "0x2",
      "effectiveGasPrice": "0xb301ee33"
    },
    {
      "transactionHash": "0x597228aad29125262f581e99dd21dbb7cfcfa6b64652307e9a7d7fb94456e3f0",
      "transactionIndex": "0x7",
      "blockHash": "0xb2043b3056863f889d8d82e77fcf44b4c6842c1fd707228941ce2ae028da003f",
      "blockNumber": "0x20783db",
      "from": "0x8ff8E6ee2A0d3427160FBa3240E87797036a2BC0",
      "to": "0x0a215D8ba66387DCA84B284D18c3B4ec3de6E54a",
      "cumulativeGasUsed": "0x1b1870",
      "gasUsed": "0x6830",
      "contractAddress": null,
      "logs": [
        {
          "address": "0x0a215D8ba66387DCA84B284D18c3B4ec3de6E54a",
          "topics": [
            "0x8c5be1e5ebec7d5bd14f71427d1e84f3dd0314c0f7b2291e5b200ac8c7c3b925",
            "0x0000000000000000000000008ff8e6ee2a0d3427160fba3240e87797036a2bc0",
            "0x00000000000000000000000071cd4ea054f9cb3d3bf6251a00673303411a7dd9"
          ],
          "data": "0xffffffffffffffffffffffffffffffffffffffffffffffffffffffffffffffff",
          "blockHash": "0xb2043b3056863f889d8d82e77fcf44b4c6842c1fd707228941ce2ae028da003f",
          "blockNumber": "0x20783db",
          "transactionHash": "0x597228aad29125262f581e99dd21dbb7cfcfa6b64652307e9a7d7fb94456e3f0",
          "transactionIndex": "0x7",
          "logIndex": "0x31",
          "removed": false
        }
      ],
      "status": "0x1",
      "logsBloom": "0x00000000000000000000000000000000000000000000000000000000000000000000000000000000000000000000000000000000000000000000000000200000000000000000000000000000000000000000000000000000004000000000000000000000000000000000000000000000000000000000000000000000000000000000000000000000000000000000000000000000000000000400000000000000020000000000000000000000100000000000000000002000004000000000000000000000000000000000020000000000080000000000000000000000000000000010000080000000000000000000000004000000000000000000000000000000",
      "type": "0x2",
      "effectiveGasPrice": "0xb301ee33"
    },
    {
      "transactionHash": "0x19290bb1ee165a71e9ed121a9a5042536db18c9b7d3dce458f6d71c567546a7e",
      "transactionIndex": "0x8",
      "blockHash": "0xb2043b3056863f889d8d82e77fcf44b4c6842c1fd707228941ce2ae028da003f",
      "blockNumber": "0x20783db",
      "from": "0x8ff8E6ee2A0d3427160FBa3240E87797036a2BC0",
      "to": "0x71cD4Ea054F9Cb3D3BF6251A00673303411A7DD9",
      "cumulativeGasUsed": "0x201c61",
      "gasUsed": "0x503f1",
      "contractAddress": null,
      "logs": [
        {
          "address": "0x05E73354cFDd6745C338b50BcFDfA3Aa6fA03408",
          "topics": [
            "0x40e9cecb9f5f1f1c5b9c97dec2917b7ee92e57ba5563708daca94dd84ad7112f",
            "0x3d3fb60326cde7d46d87e0c48e1fd9efec5f9380583b17ab28690858b36c4cca",
            "0x00000000000000000000000071cd4ea054f9cb3d3bf6251a00673303411a7dd9"
          ],
          "data": "0x00000000000000000000000000000000000000000000000000000000000f3451fffffffffffffffffffffffffffffffffffffffffffffffffffffffffff0bdc000000000000000000000000000000000000000010018d5973c15abf58985220e0000000000000000000000000000000000000000000000000000000139a40cfe00000000000000000000000000000000000000000000000000000000000000070000000000000000000000000000000000000000000000000000000000000bb8",
          "blockHash": "0xb2043b3056863f889d8d82e77fcf44b4c6842c1fd707228941ce2ae028da003f",
          "blockNumber": "0x20783db",
          "transactionHash": "0x19290bb1ee165a71e9ed121a9a5042536db18c9b7d3dce458f6d71c567546a7e",
          "transactionIndex": "0x8",
          "logIndex": "0x32",
          "removed": false
        },
        {
          "address": "0x0a215D8ba66387DCA84B284D18c3B4ec3de6E54a",
          "topics": [
            "0xddf252ad1be2c89b69c2b068fc378daa952ba7f163c4a11628f55a4df523b3ef",
            "0x00000000000000000000000005e73354cfdd6745c338b50bcfdfa3aa6fa03408",
            "0x000000000000000000000000d1b0f8f27aad2292765e2ca645e7ef1a692980c4"
          ],
          "data": "0x00000000000000000000000000000000000000000000000000000000000f3451",
          "blockHash": "0xb2043b3056863f889d8d82e77fcf44b4c6842c1fd707228941ce2ae028da003f",
          "blockNumber": "0x20783db",
          "transactionHash": "0x19290bb1ee165a71e9ed121a9a5042536db18c9b7d3dce458f6d71c567546a7e",
          "transactionIndex": "0x8",
          "logIndex": "0x33",
          "removed": false
        },
        {
          "address": "0x0a215D8ba66387DCA84B284D18c3B4ec3de6E54a",
          "topics": [
            "0x8c5be1e5ebec7d5bd14f71427d1e84f3dd0314c0f7b2291e5b200ac8c7c3b925",
            "0x000000000000000000000000d1b0f8f27aad2292765e2ca645e7ef1a692980c4",
            "0x000000000000000000000000992a8847c28f9cd9251d5382249a4d35523f510a"
          ],
          "data": "0x00000000000000000000000000000000000000000000000000000000000f3451",
          "blockHash": "0xb2043b3056863f889d8d82e77fcf44b4c6842c1fd707228941ce2ae028da003f",
          "blockNumber": "0x20783db",
          "transactionHash": "0x19290bb1ee165a71e9ed121a9a5042536db18c9b7d3dce458f6d71c567546a7e",
          "transactionIndex": "0x8",
          "logIndex": "0x34",
          "removed": false
        },
        {
          "address": "0x0a215D8ba66387DCA84B284D18c3B4ec3de6E54a",
          "topics": [
            "0xddf252ad1be2c89b69c2b068fc378daa952ba7f163c4a11628f55a4df523b3ef",
            "0x000000000000000000000000d1b0f8f27aad2292765e2ca645e7ef1a692980c4",
            "0x000000000000000000000000992a8847c28f9cd9251d5382249a4d35523f510a"
          ],
          "data": "0x00000000000000000000000000000000000000000000000000000000000f3451",
          "blockHash": "0xb2043b3056863f889d8d82e77fcf44b4c6842c1fd707228941ce2ae028da003f",
          "blockNumber": "0x20783db",
          "transactionHash": "0x19290bb1ee165a71e9ed121a9a5042536db18c9b7d3dce458f6d71c567546a7e",
          "transactionIndex": "0x8",
          "logIndex": "0x35",
          "removed": false
        },
        {
          "address": "0x0a215D8ba66387DCA84B284D18c3B4ec3de6E54a",
          "topics": [
            "0x8c5be1e5ebec7d5bd14f71427d1e84f3dd0314c0f7b2291e5b200ac8c7c3b925",
            "0x000000000000000000000000d1b0f8f27aad2292765e2ca645e7ef1a692980c4",
            "0x000000000000000000000000992a8847c28f9cd9251d5382249a4d35523f510a"
          ],
          "data": "0x0000000000000000000000000000000000000000000000000000000000000000",
          "blockHash": "0xb2043b3056863f889d8d82e77fcf44b4c6842c1fd707228941ce2ae028da003f",
          "blockNumber": "0x20783db",
          "transactionHash": "0x19290bb1ee165a71e9ed121a9a5042536db18c9b7d3dce458f6d71c567546a7e",
          "transactionIndex": "0x8",
          "logIndex": "0x36",
          "removed": false
        },
        {
          "address": "0x0a215D8ba66387DCA84B284D18c3B4ec3de6E54a",
          "topics": [
            "0x8c5be1e5ebec7d5bd14f71427d1e84f3dd0314c0f7b2291e5b200ac8c7c3b925",
            "0x000000000000000000000000992a8847c28f9cd9251d5382249a4d35523f510a",
            "0x0000000000000000000000006645d1d54aa2450e048cbdca38e032cfe8da7845"
          ],
          "data": "0x00000000000000000000000000000000000000000000000000000000000f3451",
          "blockHash": "0xb2043b3056863f889d8d82e77fcf44b4c6842c1fd707228941ce2ae028da003f",
          "blockNumber": "0x20783db",
          "transactionHash": "0x19290bb1ee165a71e9ed121a9a5042536db18c9b7d3dce458f6d71c567546a7e",
          "transactionIndex": "0x8",
          "logIndex": "0x37",
          "removed": false
        },
        {
          "address": "0x0a215D8ba66387DCA84B284D18c3B4ec3de6E54a",
          "topics": [
            "0xddf252ad1be2c89b69c2b068fc378daa952ba7f163c4a11628f55a4df523b3ef",
            "0x000000000000000000000000992a8847c28f9cd9251d5382249a4d35523f510a",
            "0x0000000000000000000000006645d1d54aa2450e048cbdca38e032cfe8da7845"
          ],
          "data": "0x00000000000000000000000000000000000000000000000000000000000f3451",
          "blockHash": "0xb2043b3056863f889d8d82e77fcf44b4c6842c1fd707228941ce2ae028da003f",
          "blockNumber": "0x20783db",
          "transactionHash": "0x19290bb1ee165a71e9ed121a9a5042536db18c9b7d3dce458f6d71c567546a7e",
          "transactionIndex": "0x8",
          "logIndex": "0x38",
          "removed": false
        },
        {
          "address": "0x0a215D8ba66387DCA84B284D18c3B4ec3de6E54a",
          "topics": [
            "0x8c5be1e5ebec7d5bd14f71427d1e84f3dd0314c0f7b2291e5b200ac8c7c3b925",
            "0x000000000000000000000000992a8847c28f9cd9251d5382249a4d35523f510a",
            "0x0000000000000000000000006645d1d54aa2450e048cbdca38e032cfe8da7845"
          ],
          "data": "0x0000000000000000000000000000000000000000000000000000000000000000",
          "blockHash": "0xb2043b3056863f889d8d82e77fcf44b4c6842c1fd707228941ce2ae028da003f",
          "blockNumber": "0x20783db",
          "transactionHash": "0x19290bb1ee165a71e9ed121a9a5042536db18c9b7d3dce458f6d71c567546a7e",
          "transactionIndex": "0x8",
          "logIndex": "0x39",
          "removed": false
        },
        {
          "address": "0x6645D1d54aA2450e048cbdca38e032cfe8DA7845",
          "topics": [
            "0xb9f27db670c081e21e3981406d212aa9f078019b69843ae23946ce7533379ef2",
            "0x0000000000000000000000000a215d8ba66387dca84b284d18c3b4ec3de6e54a",
            "0x0000000000000000000000008ff8e6ee2a0d3427160fba3240e87797036a2bc0"
          ],
          "data": "0x00000000000000000000000000000000000000000000000000000000000f34510000000000000000000000000000000000000000000000000000000000000000",
          "blockHash": "0xb2043b3056863f889d8d82e77fcf44b4c6842c1fd707228941ce2ae028da003f",
          "blockNumber": "0x20783db",
          "transactionHash": "0x19290bb1ee165a71e9ed121a9a5042536db18c9b7d3dce458f6d71c567546a7e",
          "transactionIndex": "0x8",
          "logIndex": "0x3a",
          "removed": false
        },
        {
          "address": "0x992A8847C28F9cD9251D5382249A4d35523F510A",
          "topics": [
            "0x1c44cb1018e34898de7f63c2008c044bc95b9f34f7cc6dddd09992f9e9d513d5"
          ],
          "data": "0x0000000000000000000000000a215d8ba66387dca84b284d18c3b4ec3de6e54a00000000000000000000000000000000000000000000000000000000000f34510000000000000000000000008ff8e6ee2a0d3427160fba3240e87797036a2bc0",
          "blockHash": "0xb2043b3056863f889d8d82e77fcf44b4c6842c1fd707228941ce2ae028da003f",
          "blockNumber": "0x20783db",
          "transactionHash": "0x19290bb1ee165a71e9ed121a9a5042536db18c9b7d3dce458f6d71c567546a7e",
          "transactionIndex": "0x8",
          "logIndex": "0x3b",
          "removed": false
        },
        {
          "address": "0xd1b0f8F27aad2292765E2Ca645e7eF1A692980c4",
          "topics": [
            "0xb3e3a47de24e4137021bd01a7bb3d9a19ca84f3ec350e96134d6e4e3ad640d29",
            "0x3d3fb60326cde7d46d87e0c48e1fd9efec5f9380583b17ab28690858b36c4cca",
            "0x000000000000000000000000992a8847c28f9cd9251d5382249a4d35523f510a"
          ],
          "data": "0x0000000000000000000000000a215d8ba66387dca84b284d18c3b4ec3de6e54a00000000000000000000000000000000000000000000000000000000000f34510000000000000000000000008ff8e6ee2a0d3427160fba3240e87797036a2bc0",
          "blockHash": "0xb2043b3056863f889d8d82e77fcf44b4c6842c1fd707228941ce2ae028da003f",
          "blockNumber": "0x20783db",
          "transactionHash": "0x19290bb1ee165a71e9ed121a9a5042536db18c9b7d3dce458f6d71c567546a7e",
          "transactionIndex": "0x8",
          "logIndex": "0x3c",
          "removed": false
        },
        {
          "address": "0xba50Cd2A20f6DA35D788639E581bca8d0B5d4D5f",
          "topics": [
            "0xddf252ad1be2c89b69c2b068fc378daa952ba7f163c4a11628f55a4df523b3ef",
            "0x0000000000000000000000008ff8e6ee2a0d3427160fba3240e87797036a2bc0",
            "0x00000000000000000000000005e73354cfdd6745c338b50bcfdfa3aa6fa03408"
          ],
          "data": "0x00000000000000000000000000000000000000000000000000000000000f4240",
          "blockHash": "0xb2043b3056863f889d8d82e77fcf44b4c6842c1fd707228941ce2ae028da003f",
          "blockNumber": "0x20783db",
          "transactionHash": "0x19290bb1ee165a71e9ed121a9a5042536db18c9b7d3dce458f6d71c567546a7e",
          "transactionIndex": "0x8",
          "logIndex": "0x3d",
          "removed": false
        },
        {
          "address": "0xba50Cd2A20f6DA35D788639E581bca8d0B5d4D5f",
          "topics": [
            "0x8c5be1e5ebec7d5bd14f71427d1e84f3dd0314c0f7b2291e5b200ac8c7c3b925",
            "0x0000000000000000000000008ff8e6ee2a0d3427160fba3240e87797036a2bc0",
            "0x00000000000000000000000071cd4ea054f9cb3d3bf6251a00673303411a7dd9"
          ],
          "data": "0xfffffffffffffffffffffffffffffffffffffffffffffffffffffffffff0bdbf",
          "blockHash": "0xb2043b3056863f889d8d82e77fcf44b4c6842c1fd707228941ce2ae028da003f",
          "blockNumber": "0x20783db",
          "transactionHash": "0x19290bb1ee165a71e9ed121a9a5042536db18c9b7d3dce458f6d71c567546a7e",
          "transactionIndex": "0x8",
          "logIndex": "0x3e",
          "removed": false
        }
      ],
      "status": "0x1",
      "logsBloom": "0x00008000000080000000000002001000000000100000000000000404000000000000000500000000000000000000000000080000040000000000000200210000080000000010000000000008000000000000000000100020004000004000000000010000000040002000000000000000000000400000000000000010000000040000000004100000000001000000200000000080000000020400000000040000020000000000000001000000100000810000000000002000004000000000000000000002001000010000020000000000080000400080000000000000000000000010000080000000004000001900000004000000002000000000000004001002",
      "type": "0x2",
      "effectiveGasPrice": "0xb301ee33"
    }
  ],
  "libraries": [],
  "pending": [],
  "returns": {},
  "timestamp": 1763862171,
  "chain": 84532,
  "multi": false,
  "commit": "01c11df"
}