{
  "transactions": [
    {
      "hash": "0x39951b055d35f9d7361d7c1cb218017f33b4009a5bf18eea02d8219f6bae3fc4",
      "transactionType": "CALL",
      "contractName": null,
      "contractAddress": "0xba50Cd2A20f6DA35D788639E581bca8d0B5d4D5f",
      "function": "approve(address,uint256)",
      "arguments": [
        "0x71cD4Ea054F9Cb3D3BF6251A00673303411A7DD9",
        "115792089237316195423570985008687907853269984665640564039457584007913129639935"
      ],
      "transaction": {
        "type": "0x02",
        "from": "0x8ff8e6ee2a0d3427160fba3240e87797036a2bc0",
        "to": "0xba50cd2a20f6da35d788639e581bca8d0b5d4d5f",
        "gas": "0x9f04",
        "value": "0x0",
        "data": "0x095ea7b300000000000000000000000071cd4ea054f9cb3d3bf6251a00673303411a7dd9ffffffffffffffffffffffffffffffffffffffffffffffffffffffffffffffff",
        "nonce": "0x37",
        "accessList": []
      },
      "additionalContracts": [],
      "isFixedGasLimit": false
    },
    {
      "hash": "0x597228aad29125262f581e99dd21dbb7cfcfa6b64652307e9a7d7fb94456e3f0",
      "transactionType": "CALL",
      "contractName": null,
      "contractAddress": "0x0a215D8ba66387DCA84B284D18c3B4ec3de6E54a",
      "function": "approve(address,uint256)",
      "arguments": [
        "0x71cD4Ea054F9Cb3D3BF6251A00673303411A7DD9",
        "115792089237316195423570985008687907853269984665640564039457584007913129639935"
      ],
      "transaction": {
        "type": "0x02",
        "from": "0x8ff8e6ee2a0d3427160fba3240e87797036a2bc0",
        "to": "0x0a215d8ba66387dca84b284d18c3b4ec3de6e54a",
        "gas": "0x8fe8",
        "value": "0x0",
        "data": "0x095ea7b300000000000000000000000071cd4ea054f9cb3d3bf6251a00673303411a7dd9ffffffffffffffffffffffffffffffffffffffffffffffffffffffffffffffff",
        "nonce": "0x38",
        "accessList": []
      },
      "additionalContracts": [],
      "isFixedGasLimit": false
    },
    {
      "hash": "0x19290bb1ee165a71e9ed121a9a5042536db18c9b7d3dce458f6d71c567546a7e",
      "transactionType": "CALL",
      "contractName": null,
      "contractAddress": "0x71cD4Ea054F9Cb3D3BF6251A00673303411A7DD9",
      "function": null,
      "arguments": null,
      "transaction": {
        "type": "0x02",
        "from": "0x8ff8e6ee2a0d3427160fba3240e87797036a2bc0",
        "to": "0x71cd4ea054f9cb3d3bf6251a00673303411a7dd9",
        "gas": "0x755c3",
        "value": "0x0",
        "data": "0xb1a0d57100000000000000000000000000000000000000000000000000000000000f4240000000000000000000000000000000000000000000000000000000000000000000000000000000000000000000000000000000000000000000000000000000000000000000000000000000000a215d8ba66387dca84b284d18c3b4ec3de6e54a000000000000000000000000ba50cd2a20f6da35d788639e581bca8d0b5d4d5f0000000000000000000000000000000000000000000000000000000000000bb8000000000000000000000000000000000000000000000000000000000000003c000000000000000000000000d1b0f8f27aad2292765e2ca645e7ef1a692980c400000000000000000000000000000000000000000000000000000000000001600000000000000000000000008ff8e6ee2a0d3427160fba3240e87797036a2bc000000000000000000000000000000000000000000000000000000000692267b40000000000000000000000000000000000000000000000000000000000000100000000000000000000000000000000000000000000000000000000000000004000000000000000000000000000000000000000000000000000000000000000a0000000000000000000000000000000000000000000000000000000000000002a30783939324138383437433238463963443932353144353338323234394134643335353233463531304100000000000000000000000000000000000000000000000000000000000000000000000000000000000000000000000000000000002a30783866663845366565324130643334323731363046426133323430453837373937303336613242433000000000000000000000000000000000000000000000",
        "nonce": "0x39",
        "accessList": []
      },
      "additionalContracts": [],
      "isFixedGasLimit": false
    }
  ],
  "receipts": [],
  "libraries": [],
  "pending": [
    "0x39951b055d35f9d7361d7c1cb218017f33b4009a5bf18eea02d8219f6bae3fc4",
    "0x597228aad29125262f581e99dd21dbb7cfcfa6b64652307e9a7d7fb94456e3f0",
    "0x19290bb1ee165a71e9ed121a9a5042536db18c9b7d3dce458f6d71c567546a7e"
  ],
  "returns": {},
  "timestamp": 1763862164,
  "chain": 84532,
  "multi": false,
  "commit": "01c11df"
}